:020000040800F2
:1000000008100020750F00082DE9F8430446DFF8BA
:100010003C542078C00747D5686800F00C000428DD
:1000200007D0686800F00C0008280AD16868C0038F
:1000300007D52868800337D56068002834D10120AF
:1000400049E16068B0F5803F09D008B928680AE046
:10005000B0F5A02F286806D140F4802028602868D9
:1000600040F4803005E020F480302860286820F4D7
:1000700080202860606858B100F006FA07462868BA
:10008000800311D400F000FAC01B6528F7D31FE1EC
:1000900000F0FAF907462868800305D500F0F4F966
:1000A000C01B6528F7D313E12078DFF8AC63800725
:1000B00018D5686810F00C0F07D0686800F00C00C5
:1000C000082825D16868C00322D42868800702D593
:1000D00020690128B3D12868616920F0F80040EA5E
:1000E000C1002860207800073ED5A169DFF86C03C5
:1000F000002965D00121016000F0C6F90746686A51
:10010000800722D400F0C0F9C01B0328F7D3DFE03A
:10011000206968B10120306000F0B6F90746286810
:100120008007D8D400F0B0F9C01B0328F7D3CFE084
:10013000306000F0A9F9074628688007D2D500F0A2
:10014000A3F9C01B0328F7D3C2E0DFF80803006857
:10015000C0084FF47A71B0FBF1F0009000BF009836
:10016000411E00280091F9D1207840076FD5E86939
:10017000C0004FF000080AD4E86940F08050E86100
:100180004FF00108E86900F0805000900098DFF817
:10019000D092D9F80000C0051FD4D9F8000040F46F
:1001A0008070C9F8000000F06FF90746D9F8000028
:1001B000C00512D400F068F9C01B6528F6D387E0AB
:1001C000016000F061F90746686A8007CCD500F04D
:1001D0005BF9C01B0328F7D37AE0E068012808D058
:1001E00008B9286A09E00528286A06D140F0040009
:1001F0002862286A40F0010005E0400840002862BB
:10020000286A20F00400286241F28939E06858B178
:1002100000F03AF90746286A800711D400F034F953
:10022000C01B4845F7D353E000F02EF90746286A73
:10023000800705D500F028F9C01B4845F7D347E0F3
:10024000B8F1000F03D0E86920F08050E861E06960
:1002500000283FD0696801F00C0108293FF4EFAE97
:1002600002282AD100F039F807462868800105D510
:1002700000F00AF9C01B0328F7D329E0206AB0F583
:10028000803F05D16868A16820F4003008436860A9
:100290006868216A20F474100843616A0843686042
:1002A000012000F01BF807462868800112D400F0F6
:1002B000EBF8C01B0328F7D30AE000F00EF807465E
:1002C0002868800106D500F0DFF8C01B0328F7D3AB
:1002D000032000E00020BDE8F2830020306600F03B
:1002E000D3B82DE9F8435F4E04463068884600F0E5
:1002F0000700404502D200F076F852D12078534FE3
:10030000800705D57868A16820F0F0000843786080
:100310002078C0073DD56068012802D1396889037B
:1003200003E00228396802D1890102D439E0890743
:1003300037D57968890840EA8100786041F28939C7
:1003400000F0A2F80546606801280AD1786800F03C
:100350000C0004281DD000F097F8401B4845F5D349
:1003600015E002280AD1786800F00C00082810D0A7
:1003700000F08AF8401B4845F5D308E0786810F093
:100380000C0F06D000F080F8401B4845F6D3032040
:1003900027E0306800F00700804504D200F023F821
:1003A00001D001201DE02078400705D57868E1687C
:1003B00020F4E060084378602078000706D578686C
:1003C000216920F4605040EAC100786000F015F81F
:1003D0007A682549C2F30312895CC8401D49086048
:1003E0000020BDE8F2833068C00848EAC0003060F1
:1003F000306800F007004045704700B585B001A89F
:100400000FF27001102200F055F80FF2780000880A
:10041000ADF800001548016801F00C02082A12D15D
:1004200001AAC1F38343C903D25C09D50068084916
:10043000C0F340401DF80000B1FBF0F0504303E072
:100440000B48504300E0024805B000BD00100240D8
:1004500000127A0000000020000042428004424264
:100460000070004000200240680E000804100240A6
:1004700000093D0002030405060708090A0B0C0DDC
:100480000E0F10100102000001480068704700BF05
:100490004814002062B38B0708D0521E11F8013BAC
:1004A00000F8013B00F024808B07F6D1830740F071
:1004B000208000BF103A07D330B4B1E83810103AAA
:1004C000A0E83810F9D230BC530724BFB1E80810B7
:1004D000A0E8081044BF51F8043B40F8043BD207A1
:1004E00024BF31F8022B20F8022B44BF0B78037095
:1004F0007047083A07D3B1E80810083A40F8043BBF
:1005000040F804CBF7D25307E4E700002DE9F047A9
:10051000DFF854730446387E01260128884608BF58
:10052000022039D03E764CF250392068DFF83C5337
:10053000022848460DD100F005FA50BB012000F01A
:10054000BAF800F009F90646286820F0040028608F
:100550001FE000F0F7F9E0B94FF0FF30C8F80000F5
:10056000D4F808A001E00AF5806AE068A16801EB10
:10057000802082450DD2504600F066F900F0ECF87C
:100580000646286820F0020028603000EBD0C8F84A
:1005900000A0002038763046BDE8F08770B500F046
:1005A0004CF900F044F9010008D100F008F800F01F
:1005B0002EF903D1E0B2BDE8704015E170BDAA4943
:1005C000AA4E0020C861306840F0200030603068DA
:1005D00040F040003060284600F0B4B92DE9F04109
:1005E000A14C217E05460120012908BF022043D0ED
:1005F00020762978C9070AD56968A868012902D137
:1006000000F066F801E000F0AAF8010032D1297884
:10061000890704D5287C00F0E7F801002AD1297861
:10062000924E49074CF2503812D56F7C00F026F8F4
:1006300001000BD10020E0618D4900F0F3F847F094
:100640008800088000F01AF800F0E7F8010011D1E6
:10065000297809070ED52F7E6D6900F00FF801008B
:1006600008D10020E06100F0DDF82F8000F006F8EE
:1006700000F0D3F800212176BDE8F081404600F07B
:1006800061B938B50446072020607A4D6868A060DB
:1006900000F0D3F820742868C0F38200607431BD84
:1006A0007449754A9042086802D1C0F387207047A8
:1006B000C0F3874070476C490020C8616B480168EF
:1006C00041F004010160016841F0400101607047A0
:1006D0002DE9F047654C216921EA000000F033F86C
:1006E00001002ED100F07CF801002AD100F071F851
:1006F00006D038882840388000F02EF8010008D154
:10070000B8F1FF0F07D0788808EA0000788000F081
:1007100023F8010008D1BAF1FF0F07D0B8880AEA20
:100720000000B88000F018F8010006D1FF2E04D0B8
:10073000F8883040F88000F00FF8216821F01001AF
:100740002160BDE8F08700F0FF05C0F30728C0F383
:10075000074A060E4CF25039484600F0F3B82DE92E
:10076000F047424C21690843FFF7EDFF01002ED10D
:1007700000F036F801002AD100F02BF806D03888B6
:1007800028433880FFF7E8FF010008D1B8F1FF0FD8
:1007900007D0788848EA00007880FFF7DDFF010085
:1007A00008D1BAF1FF0F07D0B8884AEA0000B88034
:1007B000FFF7D2FF010006D1FF2E04D0F8883043A6
:1007C000F880FFF7C9FF216821F010012160BDE822
:1007D000F087216841F01001FF2D2160274F7047FD
:1007E00021490020C861D9E670B500F020F8010069
:1007F0000CD1FFF7E4FE00F00AF807D100F012F880
:100800001F480480FFF7E7FE00F007F870BD31686D
:1008100021F02001316001007047316821F01001A2
:1008200031607047306840F0100030607047044617
:100830004CF25035284600F085B80E490968A520CD
:10084000890748BF00207047074A0021D161074946
:100850000A6842F002020A604860086840F04000FE
:1008600008607047000000001014002010200240B3
:1008700002F8FF1F1C20024004F8FF1F08F8FF1FAA
:1008800000F8FF1F2DE9F84F534C0646207E012843
:10089000894692469B4608BF022027D00120207639
:1008A0004CF25038404600F04DF801001CD1012EAA
:1008B0001CBF022E04260027484D00E07F1CB742D3
:1008C00012DA504659463A0100F094F881B209EB29
:1008D000470000F02DF8404600F034F82968490838
:1008E000490029600100E9D000212176BDE8F28F9E
:1008F0003C48C168090600D506E00120704737482A
:10090000016841F0800102E0374901603749016028
:100910000020704736488168890500D4F4E701203B
:1009200070472E48016821F40071F0E700F072B8BA
:10093000294B0022DA61294A136843F0010313604E
:100940000180704770B50546FFF79EFD0646244CB2
:100950002068C0070AD515F1010FF9D025B1FFF7BE
:1009600093FD801B8542F3D2032070BD2068800672
:1009700044BF202020602068C00605D42069C0073D
:1009800002D42068400703D500F004F8012070BDB0
:10099000002070BD124910480B680022DB0604D508
:1009A000C26942F00202C26110220B685B0705D5E2
:1009B000C36943F00103C36142F004020B69DB0722
:1009C00007D5C36943F00403C361086940084000C8
:1009D00008610A60704700001014002010200240D7
:1009E0000C2002400420024023016745AB89EFCD73
:1009F00008200240D2B2203A22BF21FA02F00021A0
:100A000070472032D141D04048409140D1404840C9
:100A100070470000BFF34F8F0548064A016801F494
:100A2000E06111430160BFF34F8F00BFFDE700009D
:100A30000CED00E00400FA0510B588B004466846E5
:100A4000FFF71FFE00988DF8184040F00800009056
:100A50005B480590FFF74CFFFFF75CFFFFF79EFD3B
:100A60006846FFF7BBFDFFF75CFFFFF748FF01207B
:100A700080F31388FFF75AFF08B010BD70B55048D7
:100A8000504CFFF70DFEC0B2082821D154F8042DB8
:100A90004D494E488A4201D08442F7D2844217D34E
:100AA0004DCC4B4D4DC5103D884211D1B3F5E04FB3
:100AB0000BD89A084749484800F0A7F8E9688842E7
:100AC00001D1012070BD092000E00A20FFF7B4FF2A
:100AD000002070BD2DE9F04D86B0FFF7CFFF3F4DF0
:100AE00030B9286880F308883D4805606868804709
:100AF000012080F31388FFF7FBFE3A483A4E344F4B
:100B000040F2151BC0F800B00020019003951C2096
:100B100004906946012002904FF0000A01A8FFF7F7
:100B2000F5FCFFF7ECFE01E00AF5806AB868824543
:100B300035D20AF1006000F500444FF4806221468E
:100B4000301DFFF7A7FC4FF480622146301D00F0F6
:100B50007BF800B1FEE705EB0A08CDF80080FFF74F
:100B6000C7FE2048C0F800B0002406EB4400002374
:100B70008288009800EB44010120FFF783FE641C8B
:100B8000B4F5007F3070F0D3FFF7B9FE4FF4806208
:100B90004146301D00F058F80028C5D0FEE7820815
:100BA00029460D4800F031F8C6F80404F968884277
:100BB00005D10B20FFF740FF06B0BDE8F08DFEE742
:100BC00004F8FF1F00F000085AA55AA5018000088C
:100BD000301400200080000840140020001000089D
:100BE00008ED00E00C2002400810002010B50400C1
:100BF00001D1012010BD607918B92071204600F0A4
:100C000064F801206071002010BD30B50479002324
:100C1000012C01D1022030BD012404710224447151
:100C20000468A56845F00105A56003E051F823506C
:100C300025605B1C04689342F8D3012141710021B7
:100C40000171206830BD00000300002013F0030F85
:100C500009D0521E22BF13F8010B11F801CBB0EBE3
:100C60000C00F3D07047121F22BF53F8040B51F849
:100C700004CB6045F7D0121D0AD200BA9CFA8CFC56
:100C8000B0EB0C0038BF6FF0000088BF0120704748
:100C9000521E22BF13F8010B11F801CBB0EB0C0070
:100CA000F6D0521C08BF10467047000080B50F48B0
:100CB0000F490160FFF79AFF30B1BDE804403821C9
:100CC0000FF2340000F06BB801BD81B00068084934
:100CD000884209D10748016841F04001016000687D
:100CE00000F040000090009801B0704740140020D0
:100CF0000030024014100240473A5C6C6561726E2D
:100D00005C62617272795F636F64655C73746D338A
:100D1000325C626F6F746C6F616465725F73746D67
:100D200033326631303343385C5372635C637263D1
:100D30002E63000080B500F033F800F007F800F0F3
:100D40003BF8FFF7B3FFFFF7C5FEFCE700B58FB038
:100D500001200590002107914FF480300690012179
:100D60000D9009914FF4E01002210E900C9105A80E
:100D7000FFF74AF900B1FEE70F20009002210220A0
:100D80000190002002904FF48060039000200490B6
:100D90006846FFF7A6FA00B1FEE70FB000BDFEE718
:100DA00080B50448016841F01001016000F01CF8B2
:100DB000002002BD002002400A4881B0016841F0D5
:100DC00020010160016801F0200100910099016893
:100DD00041F004010160006800F0040000900098F8
:100DE00001B07047181002400A4881B0016841F014
:100DF00001010160006800F00100009000980648C1
:100E0000016821F0E0610160016841F0007101605A
:100E100001B0704718100240040001400E480F4A0C
:100E2000016841F0010101604168114041600C4AD4
:100E3000016811400160016821F48021016041686E
:100E400021F4FE0141604FF41F0181604FF000600A
:100E50000449086070470000001002400000FFF8DD
:100E6000FFFFF6FE08ED00E00000000000000000BB
:100E7000010203040607080919E050F8041BCB0718
:100E800044BFA9F101035918121F0023042A41F895
:100E9000043BF9D25FEA827C0B4604D54FF0000C8C
:100EA000A1F800C09B1CD10744BF0021197050F865
:100EB000042B002AE1D1704710B450F8041B79B11B
:100EC0000268436802440830DC0744BFA9F101040A
:100ED000E31852F8044B43F8044B091FF9D1ECE72F
:100EE00010BC704710B5074979441831064C7C4452
:100EF000163404E00A68081D114488470146A142DF
:100F0000F8D110BD08000000280000006DFFFFFFB1
:100F10004404000008100020000000009DFFFFFFB7
:100F2000040000006C000000000000200000000031
:100F300000F00BF8002801D0FFF7D4FF0020AFF33A
:100F40000080FFF7F7FE00F002F80120704700F084
:100F500001B800000746384600F002F8FBE7000041
:100F600080B5AFF30080024A11001820ABBEFBE74A
:100F70002600020001488047014800471D0E000876
:100F8000850F0008AFF30080AFF30080FFF7D0FFBC
:040F900000A24A046D
:0400000508000F855B
:00000001FF
