:020000040800F2
:2000000008100020750F00082DE9F8430446DFF83C542078C00747D5686800F00C000428A7
:2000200007D0686800F00C0008280AD16868C00307D52868800337D56068002834D101206E
:2000400049E16068B0F5803F09D008B928680AE0B0F5A02F286806D140F48020286028686F
:2000600040F4803005E020F480302860286820F480202860606858B100F006FA0746286801
:20008000800311D400F000FAC01B6528F7D31FE100F0FAF907462868800305D500F0F4F9E2
:2000A000C01B6528F7D313E12078DFF8AC63800718D5686810F00C0F07D0686800F00C009A
:2000C000082825D16868C00322D42868800702D520690128B3D12868616920F0F80040EAC1
:2000E000C1002860207800073ED5A169DFF86C03002965D00121016000F0C6F90746686A06
:20010000800722D400F0C0F9C01B0328F7D3DFE0206968B10120306000F0B6F9074628685B
:200120008007D8D400F0B0F9C01B0328F7D3CFE0306000F0A9F9074628688007D2D500F057
:20014000A3F9C01B0328F7D3C2E0DFF808030068C0084FF47A71B0FBF1F0009000BF0098DE
:20016000411E00280091F9D1207840076FD5E869C0004FF000080AD4E86940F08050E861AA
:200180004FF00108E86900F0805000900098DFF8D092D9F80000C0051FD4D9F8000040F417
:2001A0008070C9F8000000F06FF90746D9F80000C00512D400F068F9C01B6528F6D387E084
:2001C000016000F061F90746686A8007CCD500F05BF9C01B0328F7D37AE0E068012808D076
:2001E00008B9286A09E00528286A06D140F004002862286A40F0010005E0400840002862B5
:20020000286A20F00400286241F28939E06858B100F03AF90746286A800711D400F034F9DD
:20022000C01B4845F7D353E000F02EF90746286A800705D500F028F9C01B4845F7D347E098
:20024000B8F1000F03D0E86920F08050E861E06900283FD0696801F00C0108293FF4EFAE49
:2002600002282AD100F039F807462868800105D500F00AF9C01B0328F7D329E0206AB0F505
:20028000803F05D16868A16820F40030084368606868216A20F474100843616A084368607D
:2002A000012000F01BF807462868800112D400F0EBF8C01B0328F7D30AE000F00EF8074606
:2002C0002868800106D500F0DFF8C01B0328F7D3032000E00020BDE8F2830020306600F0B8
:2002E000D3B82DE9F8435F4E04463068884600F00700404502D200F076F852D12078534FBA
:20030000800705D57868A16820F0F000084378602078C0073DD56068012802D1396889030E
:2003200003E00228396802D1890102D439E0890737D57968890840EA8100786041F289393D
:2003400000F0A2F80546606801280AD1786800F00C0004281DD000F097F8401B4845F5D3D8
:2003600015E002280AD1786800F00C00082810D000F08AF8401B4845F5D308E0786810F0AD
:200380000C0F06D000F080F8401B4845F6D3032027E0306800F00700804504D200F023F8F4
:2003A00001D001201DE02078400705D57868E16820F4E060084378602078000706D578689B
:2003C000216920F4605040EAC100786000F015F87A682549C2F30312895CC8401D4908603A
:2003E0000020BDE8F2833068C00848EAC0003060306800F007004045704700B585B001A883
:200400000FF27001102200F055F80FF278000088ADF800001548016801F00C02082A12D17B
:2004200001AAC1F38343C903D25C09D500680849C0F340401DF80000B1FBF0F0504303E0BC
:200440000B48504300E0024805B000BD0010024000127A0000000020000042428004424290
:200460000070004000200240680E00080410024000093D0002030405060708090A0B0C0DF6
:200480000E0F10100102000001480068704700BF4814002062B38B0708D0521E11F8013B45
:2004A00000F8013B00F024808B07F6D1830740F0208000BF103A07D330B4B1E83810103ACF
:2004C000A0E83810F9D230BC530724BFB1E80810A0E8081044BF51F8043B40F8043BD2072C
:2004E00024BF31F8022B20F8022B44BF0B7803707047083A07D3B1E80810083A40F8043B48
:2005000040F804CBF7D25307E4E700002DE9F047DFF854730446387E01260128884608BF16
:20052000022039D03E764CF250392068DFF83C53022848460DD100F005FA50BB012000F086
:20054000BAF800F009F90646286820F0040028601FE000F0F7F9E0B94FF0FF30C8F80000D9
:20056000D4F808A001E00AF5806AE068A16801EB802082450DD2504600F066F900F0ECF801
:200580000646286820F0020028603000EBD0C8F800A0002038763046BDE8F08770B500F025
:2005A0004CF900F044F9010008D100F008F800F02EF903D1E0B2BDE8704015E170BDAA4917
:2005C000AA4E0020C861306840F020003060306840F040003060284600F0B4B92DE9F041B8
:2005E000A14C217E05460120012908BF022043D020762978C9070AD56968A868012902D119
:2006000000F066F801E000F0AAF8010032D12978890704D5287C00F0E7F801002AD12978FB
:20062000924E49074CF2503812D56F7C00F026F801000BD10020E0618D4900F0F3F847F0BE
:200640008800088000F01AF800F0E7F8010011D1297809070ED52F7E6D6900F00FF80100C7
:2006600008D10020E06100F0DDF82F8000F006F800F0D3F800212176BDE8F081404600F0DF
:2006800061B938B50446072020607A4D6868A06000F0D3F820742868C0F38200607431BDF5
:2006A0007449754A9042086802D1C0F387207047C0F3874070476C490020C8616B4801684D
:2006C00041F004010160016841F04001016070472DE9F047654C216921EA000000F033F8E2
:2006E00001002ED100F07CF801002AD100F071F806D038882840388000F02EF8010008D19B
:20070000B8F1FF0F07D0788808EA0000788000F023F8010008D1BAF1FF0F07D0B8880AEAB8
:200720000000B88000F018F8010006D1FF2E04D0F8883040F88000F00FF8216821F010019E
:200740002160BDE8F08700F0FF05C0F30728C0F3074A060E4CF25039484600F0F3B82DE908
:20076000F047424C21690843FFF7EDFF01002ED100F036F801002AD100F02BF806D038883A
:2007800028433880FFF7E8FF010008D1B8F1FF0F07D0788848EA00007880FFF7DDFF0100F4
:2007A00008D1BAF1FF0F07D0B8884AEA0000B880FFF7D2FF010006D1FF2E04D0F888304391
:2007C000F880FFF7C9FF216821F010012160BDE8F087216841F01001FF2D2160274F7047F6
:2007E00021490020C861D9E670B500F020F801000CD1FFF7E4FE00F00AF807D100F012F8E0
:200800001F480480FFF7E7FE00F007F870BD316821F02001316001007047316821F0100127
:2008200031607047306840F010003060704704464CF25035284600F085B80E490968A5201C
:20084000890748BF00207047074A0021D16107490A6842F002020A604860086840F040009C
:200860000860704700000000101400201020024002F8FF1F1C20024004F8FF1F08F8FF1FD5
:2008800000F8FF1F2DE9F84F534C0646207E0128894692469B4608BF022027D00120207614
:2008A0004CF25038404600F04DF801001CD1012E1CBF022E04260027484D00E07F1CB74235
:2008C00012DA504659463A0100F094F881B209EB470000F02DF8404600F034F82968490839
:2008E000490029600100E9D000212176BDE8F28F3C48C168090600D506E0012070473748C0
:20090000016841F0800102E037490160374901600020704736488168890500D4F4E701207C
:2009200070472E48016821F40071F0E700F072B8294B0022DA61294A136843F00103136041
:200940000180704770B50546FFF79EFD0646244C2068C0070AD515F1010FF9D025B1FFF7C9
:2009600093FD801B8542F3D2032070BD2068800644BF202020602068C00605D42069C00728
:2009800002D42068400703D500F004F8012070BD002070BD124910480B680022DB0604D551
:2009A000C26942F00202C26110220B685B0705D5C36943F00103C36142F004020B69DB07BD
:2009C00007D5C36943F00403C36108694008400008610A6070470000101400201020024078
:2009E0000C2002400420024023016745AB89EFCD08200240D2B2203A22BF21FA02F000210C
:200A000070472032D141D04048409140D140484070470000BFF34F8F0548064A016801F477
:200A2000E06111430160BFF34F8F00BFFDE700000CED00E00400FA0510B588B004466846BC
:200A4000FFF71FFE00988DF8184040F0080000905B480590FFF74CFFFFF75CFFFFF79EFDEB
:200A60006846FFF7BBFDFFF75CFFFFF748FF012080F31388FFF75AFF08B010BD70B55048CC
:200A8000504CFFF70DFEC0B2082821D154F8042D4D494E488A4201D08442F7D2844217D3A0
:200AA0004DCC4B4D4DC5103D884211D1B3F5E04F0BD89A084749484800F0A7F8E968884254
:200AC00001D1012070BD092000E00A20FFF7B4FF002070BD2DE9F04D86B0FFF7CFFF3F4DF4
:200AE00030B9286880F308883D48056068688047012080F31388FFF7FBFE3A483A4E344F4E
:200B000040F2151BC0F800B00020019003951C2004906946012002904FF0000A01A8FFF7A8
:200B2000F5FCFFF7ECFE01E00AF5806AB868824535D20AF1006000F500444FF4806221460C
:200B4000301DFFF7A7FC4FF480622146301D00F07BF800B1FEE705EB0A08CDF80080FFF7A0
:200B6000C7FE2048C0F800B0002406EB440000238288009800EB44010120FFF783FE641C7A
:200B8000B4F5007F3070F0D3FFF7B9FE4FF480624146301D00F058F80028C5D0FEE78208B8
:200BA00029460D4800F031F8C6F80404F968884205D10B20FFF740FF06B0BDE8F08DFEE774
:200BC00004F8FF1F00F000085AA55AA5018000083014002000800008401400200010000804
:200BE00008ED00E00C2002400810002010B5040001D1012010BD607918B92071204600F060
:200C000064F801206071002010BD30B504790023012C01D1022030BD012404710224447191
:200C20000468A56845F00105A56003E051F8235025605B1C04689342F8D30121417100215F
:200C40000171206830BD00000300002013F0030F09D0521E22BF13F8010B11F801CBB0EBC4
:200C60000C00F3D07047121F22BF53F8040B51F804CB6045F7D0121D0AD200BA9CFA8CFC1B
:200C8000B0EB0C0038BF6FF0000088BF01207047521E22BF13F8010B11F801CBB0EB0C0054
:200CA000F6D0521C08BF10467047000080B50F480F490160FFF79AFF30B1BDE80440382135
:200CC0000FF2340000F06BB801BD81B000680849884209D10748016841F04001016000688D
:200CE00000F040000090009801B07047401400200030024014100240473A5C6C6561726EF9
:200D00005C62617272795F636F64655C73746D33325C626F6F746C6F616465725F73746D0E
:200D200033326631303343385C5372635C6372632E63000080B500F033F800F007F800F001
:200D40003BF8FFF7B3FFFFF7C5FEFCE700B58FB001200590002107914FF48030069001210E
:200D60000D9009914FF4E01002210E900C9105A8FFF74AF900B1FEE70F200090022102202B
:200D80000190002002904FF480600390002004906846FFF7A6FA00B1FEE70FB000BDFEE76B
:200DA00080B50448016841F01001016000F01CF8002002BD002002400A4881B0016841F044
:200DC00020010160016801F0200100910099016841F004010160006800F004000090009868
:200DE00001B07047181002400A4881B0016841F001010160006800F00100009000980648D2
:200E0000016821F0E0610160016841F00071016001B0704718100240040001400E480F4A84
:200E2000016841F0010101604168114041600C4A016811400160016821F480210160416880
:200E400021F4FE0141604FF41F0181604FF000600449086070470000001002400000FFF845
:200E6000FFFFF6FE08ED00E00000000000000000010203040607080919E050F8041BCB0751
:200E800044BFA9F101035918121F0023042A41F8043BF9D25FEA827C0B4604D54FF0000CBF
:200EA000A1F800C09B1CD10744BF0021197050F8042B002AE1D1704710B450F8041B79B13E
:200EC0000268436802440830DC0744BFA9F10104E31852F8044B43F8044B091FF9D1ECE717
:200EE00010BC704710B5074979441831064C7C44163404E00A68081D114488470146A1422F
:200F0000F8D110BD08000000280000006DFFFFFF4404000008100020000000009DFFFFFF87
:200F2000040000006C000000000000200000000000F00BF8002801D0FFF7D4FF0020AFF3AA
:200F40000080FFF7F7FE00F002F80120704700F001B800000746384600F002F8FBE7000024
:200F600080B5AFF30080024A11001820ABBEFBE72600020001488047014800471D0E00083F
:200F8000850F0008AFF30080AFF30080FFF7D0FF00A24A04FFFFFFFFFFFFFFFFFFFFFFFFC8
:200FA000FFFFFFFFFFFFFFFFFFFFFFFFFFFFFFFFFFFFFFFFFFFFFFFFFFFFFFFFFFFFFFFF51
:200FC000FFFFFFFFFFFFFFFFFFFFFFFFFFFFFFFFFFFFFFFFFFFFFFFFFFFFFFFFFFFFFFFF31
:200FE000FFFFFFFFFFFFFFFFFFFFFFFFFFFFFFFFFFFFFFFFFFFFFFFFFFFFFFFFFFFFFFFF11
:201000007011002039730008412D0008432D0008452D0008472D0008492D00080000000019
:201020000000000000000000000000004B2D00084D2D0008000000004F2D0008512D0008A4
:201040005D7300085D7300085D7300085D7300085D7300085D7300085D7300085D730008D0
:201060005D7300085D7300085D7300085D7300085D7300085D7300085D7300085D730008B0
:201080005D7300085D7300085D7300085D730008672D00085D7300085D7300085D730008CC
:2010A0005D7300085D7300085D7300085D7300085D7300085D7300086D2D00085D730008A6
:2010C0005D7300085D7300085D7300085D7300085D730008732D00085D7300085D73000880
:2010E0005D7300085D7300085D73000838B5040001D1012032BD04F13C056878002804D182
:2011000000202870204600F069FD02206870211D206800F0C3FA01206870002032BD38B5F9
:20112000040001D1012032BD04F13C056878002804D100202870204600F061FD0220687050
:20114000211D206800F0AAFA01206870002032BD10B504460122206800F032FC2068DFF8F6
:201160006C11884203D1416C41F4004141642068016841F001010160002010BD10B504460B
:201180000022206800F01CFC206841F21111DFF83C2190420BD1026A0A4208D1026A40F2AF
:2011A00044431A4203D1426C22F4004242642068026A0A4208D1016A40F24442114203D169
:2011C0000168490849000160012084F83D00002010BD38B5040001D1012032BD04F13C05DB
:2011E0006878002804D100202870204600F026FD02206870211D206800F050FA01206870EE
:20120000002032BD10B50446080006D004280AD008280ED00C2812D016E02068C26842F0CE
:201220000202C26010E02068C26842F00402C2600AE02068C26842F00802C26004E0206826
:20124000C26842F01002C2600122206800F0B8FB2068016841F001010160002010BD10B579
:201260000446080006D004280AD008280ED00C2812D016E02068C26822F00202C26010E04C
:201280002068C26822F00402C2600AE02068C26822F00802C26004E02068C26822F01002CE
:2012A000C2600022206800F08BFB2068016A41F21112114208D1016A40F24442114203D12D
:2012C0000168490849000160002010BD002C014010B5044620680169890717D5C16889071A
:2012E00014D56FF002010161012020772068806910F0030F204602D000F01AFD04E000F0F3
:20130000A1FD204600F09EFD0020207720680169490717D5C168490714D56FF00401016131
:20132000022020772068806910F4407F204602D000F0FEFC04E000F085FD204600F082FD73
:201340000020207720680169090717D5C168090714D56FF008010161042020772068C06990
:2013600010F0030F204602D000F0E2FC04E000F069FD204600F066FD0020207720680169B9
:20138000C90617D5C168C90614D56FF010010161082020772068C06910F4407F204602D074
:2013A00000F0C6FC04E000F04DFD204600F04AFD0020207720680169C90708D5C168C90771
:2013C00005D56FF001010161204600F00BFD20680169090608D5C168090605D56FF0800142
:2013E0000161204600F02EFD20680169490608D5C168490605D56FF040010161204600F042
:2014000021FD2068016989060AD5C168890607D56FF0200101612046BDE8104000F012BDBE
:2014200010BDF8B507460E4607F13C052878012801D10220F2BD012028700220687074685D
:20144000F36838683168002A0DD1224600F0F7F93868816921F00C01816138688169B2687A
:20146000114381612DE0042A0ED1224600F032FA3868816921F44061816138688169B268D2
:2014800041EA022181611CE0082A22460CD100F04FFA3868C16921F00C01C1613868C1699C
:2014A000B2681143C1610CE000F05CFA3868C16921F44061C1613868C169B26841EA022196
:2014C000C1610120687000202870F2BD70B506460D4606F13C042078012801D1022070BDAD
:2014E0000120207002206070002A06D0042A17D0082A29D00C2A3AD04CE0306800F001F91B
:201500003068816941F0080181613068816921F004018161306881692A691143816139E04F
:20152000306800F016F93068816941F4006181613068816921F480618161306881692A69AB
:2015400041EA0221816125E0306800F02DF93068C16941F00801C1613068C16921F00401B2
:20156000C1613068C1692A691143C16112E0306800F044F93068C16941F40061C1613068B5
:20158000C16921F48061C1613068C1692A6941EA0221C161012060700020207070BD38B589
:2015A000054605F13C042078012801D1022032BD012020700220607028688268DFF8DC3204
:2015C0001A4082600868002850D0102853D0202856D0302859D040283ED0502828D060285F
:2015E00030D070280CD0B0F5805F03D0B0F5005F12D04EE028688168C908C900816048E0F0
:20160000CB684A688968286800F0CFF92868826842F0770181603CE0CB684A688968286825
:2016200000F0C3F92868816841F48041816030E0CA684968286800F03BF95021286800F016
:20164000ACF926E0CA684968286800F05EF96021286800F0A2F91CE0CA684968286800F02A
:2016600027F94021286800F098F912E00021286800F093F90DE01021286800F08EF908E0AC
:201680002021286800F089F903E03021286800F084F9012060700020207032BD10B4036817
:2016A0007F4A904208D0B0F1804F05D07D4CA04202D07D4CA04203D123F070034C682343D6
:2016C000904208D0B0F1804F05D0764CA04202D0754CA04203D123F44073CC68234323F0B7
:2016E00080034C69234303608B68C3620B688362904202D109696D4A11600121416110BCAA
:20170000704770B4026A520852000262046A4268836923F073030D682B4324F002048D68F3
:201720002C435F4DA84205D124F00804CE68344324F00404A84205D122F440724D692A433A
:201740008D692A434260836149684163046270BC704770B4026A22F010020262046A4268D2
:20176000836923F4E6430D6843EA052324F020048D6844EA05144A4DA8420ED124F0800407
:20178000CE6844EA061424F0400406D122F440624D698E69354342EA8502426083614968D5
:2017A0008163046270BC704770B4026A22F480720262046A4268C36923F073030D682B4350
:2017C00024F400748D6844EA0524354DA8420ED124F40064CE6844EA062424F4806406D109
:2017E00022F440524D698E69354342EA05124260C3614968C163046270BC704730B4026AA5
:2018000022F480520262026A4368C46924F4E6440D6844EA052422F400528D6842EA05326A
:201820001F4DA84204D123F480434D6943EA85134360C46149680164026230BC704770B41F
:20184000046A6408640004628569046A144EB04208D0B0F1804F05D0124EB04202D0124E93
:20186000B04201D1012600E00026002E03D0AD0852EA850201E045F0010222F0F0021B01C5
:2018800003F0F0031A43826124F00A0201F00A011143016270BC7047000000008800FFFFE6
:2018A000002C01400004004000080040302C014010B4036A046A640864000462846924F0BC
:2018C000F00444EA0212826123F00A021143016210BC704730B4046A24F0100404628469C9
:2018E000056A24F4407444EA022222F470421B0303F470431A43826125F0A002090101F0D9
:20190000A0011143016230BC704710B4036A23F0100303628369046A23F4704343EA02328B
:20192000826124F0A00242EA0111016210BC704730B4046A24F480740462C469056AA408DE
:2019400052EA840222F0F0021B0103F0F0031A43C26125F42062090201F42061114301626C
:2019600030BC704730B4046A24F480540462C469056A24F4407444EA022222F470421B0380
:2019800003F470431A43C26125F40052090301F400511143016230BC7047826822F0700298
:2019A000114341F007018160704710B4846824F47F442143114341EA0321816010BC70470C
:2019C00010B4036A01248C40A3430362036A02FA01F11943016210BC704703681AB95A1E47
:2019E000026008467047197811B94FF0FF307047591C01601878704710B586B0B04CB148F3
:201A0000206000206060A0604FF4E150E060002020616061A0612046FFF768FB002804D094
:201A20004F210FF2C82000F092FA4FF48050029002A92046FFF7B3FD002804D055210FF202
:201A4000AC2000F084FA0020009001906946204600F098FA002804D05C210FF2902000F05A
:201A600076FA06B010BD10B58AB0974C4FF08040206044F61F6060600020A060C820E06051
:201A800000202061A0612046FFF749FB002804D06E210FF2582000F05AFA0020009001907B
:201AA0006946204600F06EFA002804D075210FF23C2000F04CFA602002906420039000204B
:201AC00004900690042202A92046FFF7FFFC002804D07E210FF2142000F039FA204600F06B
:201AE000D1F80AB010BD10B58AB0784C7848206000206060A0604FF4E160E060002020614E
:201B0000A0612046FFF70BFB002804D092210FF2DC1000F01CFA002000900190694620466A
:201B200000F030FA002804D099210FF2C01000F00EFA602002904FF41670039000200490EA
:201B40000690024602A92046FFF7C0FC002804D0A2210FF2981000F0FAF9204600F092F8B9
:201B60000AB010BD10B586B05A4C5B48206041F61F4060600020A0606420E060002020613F
:201B8000A0612046FFF725FB002804D0B6210FF25C1000F0DCF9002000900190694620466D
:201BA00000F0F0F9002804D0BD210FF2401000F0CEF90220029001200390002004900590B9
:201BC000024602A92046FFF72CFC002804D0C6210FF2181000F0BBF906B010BD81B00068C2
:201BE0003849884209D13D48016841F400610160006800F400600090009801B0704781B05E
:201C00000068B0F1804F0AD13548016841F001010160006800F00100009000980CE02C49B5
:201C2000884209D12E48016841F002010160006800F002000090009801B0704700682649CB
:201C4000884200D0704700B585B02548016841F004010160006800F00400009000984020F8
:201C6000019000200290039001A91E4800F0B0F9002211461E2000F0F6FA1E2000F002FB23
:201C800005B000BD00B585B00068B0F1804F08D102200090019003906946134800F098F9D6
:201CA0000BE00B49884208D14020009002200190039069460C4800F08BF905B000BD000023
:201CC00050290020002C014090290020D029002000040040102A00200008004018100240BC
:201CE0001C100240000C014000080140473A5C6C6561726E5C62617272795F636F64655C1F
:201D000073746D33325C49525F73746D33326631303343385C5372635C74696D2E630000CB
:201D200000214448FFF76EBA00214248FFF797BA007F012800D0704770B53F4C2278134614
:201D4000FF2B4ED06078002803D0022835D01DD370BD00F0B9FA012060700020207035485B
:201D600001680A6A4FF6F5731A400A6201680A6A0A626FF00101026811610021026851624F
:201D80000068C16841F00101C16070BD02206070284801684D6B294EF554521C22700A6A7A
:201DA0004FF6F5731A400A6201680A6A42F002020A6200210068416270BD012060701D4882
:201DC00001684D6B1D4EF554521C22700A6A4FF6F5731A400A6201680A6A0A620021006875
:201DE000416270BD38B5134D2868C16849084900C160114C20780B2809DBFFF795FF217823
:201E00000E4800F070FD01200D4908700EE0FFF78BFF2868016A4FF6F572114001622868C7
:201E2000016A41F002010162FFF77AFF0020607031BD0000102A0020892700208C27002056
:201E40000200002070470268531C03601170704780B513481349086000F068FD00F024F880
:201E600000F076FD00F0AAFD00F00CFFFFF7C4FDFFF7F9FDFFF737FEFFF774FE00F044FF04
:201E800000F081FF00F0FEFA00F0E6FD00F023FB00F09FFC01F083F800F000FEF6E7000047
:201EA0000010000808ED00E000B593B0012009904FF480300A904FF400310B9101210D9126
:201EC0000221109111904FF4E010129009A801F089F8002804D0A2210FF2740000F037F852
:201EE0000F20049002200590002006904FF48060079000200890022104A801F001FA00285D
:201F000004D0B0210FF2480000F021F81020009000200390684601F009FB002804D0B721E0
:201F20000FF22C0000F013F801F0B3FA4FF47A71B0FBF1F000F0A8F9042000F0A6F90022BB
:201F400002214FF0FF3000F08EF913B000BDFEE7473A5C6C6561726E5C62617272795F63E7
:201F60006F64655C73746D33325C49525F73746D33326631303343385C5372635C6D616979
:201F80006E2E630030B400F13C021378012B01D102201BE0012313700223537003685C68CB
:201FA00024F070045C6003685C680D682C435C6003689C6824F080049C6000688368496807
:201FC00019438160012050700020107030BC7047F8B50024224603E026EA0303EB60521CB5
:201FE000102A80F0B980012303FA02F50B682B40AB42F4D14E68002E27D0012E1AD0022E32
:020000040800F2
:202000001DD0032E2ED0112E16D0122E1AD0564FBE421AD0554FBE4217D0554FBE4214D0B3
:20202000544FBE4211D0544FBE420ED0534FBE420BD018E0CC6816E0CC68241D13E0CC6860
:20204000083410E0CC680C340DE08C68002C01D1042408E0012C02D10824056103E0082450
:20206000456100E00024FF2B01D8064600E0061DFF2B01D8970002E0A2F10805AF000F2565
:20208000D6F800C005FA07FE2CEA0E0C04FA07F747EA0C0737604E68F600A0D5384E376861
:2020A00047F001073760366806F001060096009E9608344F57F826E04FEA820C0CF00C0C2A
:2020C00005FA0CF52EEA0505DFF8BCE0704502D14FF0000E16E0DFF8B4E0704502D14FF06E
:2020E000010E0FE0DFF8A8E0704502D14FF0020E08E0DFF8A0E0704502D14FF0030E01E0B4
:202100004FF0040E0EFA0CFC4CEA050547F82650214D4E68F6032E6802D51E432E6001E00F
:202120009E432E604E68B6036E6802D51E436E6001E09E436E604E68F602AE6802D51E4359
:20214000AE6001E09E43AE604E68B602EE687FF543AF3343EB6042E7F1BD002A01D0016182
:20216000704709040161704700001110000012100000211000002210000031100000321059
:20218000181002400800014000080140000C014000100140001401400004014041490A680F
:2021A0004FF6FF031A40000200F4E06010433E4A1043086070473B480068C0F30220704784
:2021C000012100F01F029140384A400942F8201070470901002806D5354A00F00F00104430
:2021E00000F8041C7047334A1154704710B400F00700C0F10703052B00D30423041D072C83
:2022000001D2002000E0C01E012404FA03F35B1E1940814004FA00F0401E1040084310BCAE
:202220007047BFF34F8F1F48016801F4E061224A11430160BFF34F8F00BFFDE710B5401EDA
:20224000B0F1807F01D3012010BD1C4C60600F214FF0FF30FFF7BDFF0020A06007202060DD
:20226000002010BD9AE770B504460D461646FFF7A2FF32462946FFF7B9FF01462046BDE854
:202280007040A6E79CE7CCE7D8E70C490428086803D140F004000860704720F00400086078
:2022A000704700000CED00E00000FA0500E100E018ED00E000E400E00400FA0510E000E052
:2022C00000F000B87047000010B5C94C2078002805D10421C748FEF73BFF012020704FF4D8
:2022E0001670E06010BD0421C248FEF747BFC249B1FBF0F0C1490A68D062C8600322B0FBE4
:20230000F2F00968486370470021BC48FEF720BF0021BA48FEF732BF38B504460D46FFF786
:20232000F3FF204601F09CF9FFF7F2FF2846BDE8324001F095B938B504460D46FFF7E8FFAD
:20234000204601F08DF9FFF7DFFF284601F088F9BDE83140DCE7DFE72DE9F84F07468846D5
:2023600091469A464FF0000B0A9C0B9D0C9E07E049464046FFF7D0FF0BF1010B5FFA8BFBBC
:20238000B34512DA0120390003D000FA0BF0284004E0711EA1EB0B01884028400028E7D0B5
:2023A00021465046FFF7B8FFE6E7BDE8F18F2DE9F84381460D4616461F464FF00008089C6A
:2023C00005E0FFF7A9FF08F101085FFA88F8A0451FDA01204946002903D000FA08F03840AB
:2023E00004E0611EA1EB080188403840002809D028003146304602D0FFF78EFFE3E7FFF77A
:202400009AFFE0E7280031463046DAD0FFF793FFD9E7BDE8F18376488168002901D0491E34
:20242000816081880A0001D0491E8180C168002901D0491EC160704738B50446704D0120F8
:202440002870FFF741FF94F82000052817D8DFE800F003070B0F1613204601F055F90EE04F
:20246000204601F063F90AE0204601F0A9F906E0204601F0EFF902E0204601F009FB002044
:20248000287031BD00F06FBD10B55E4C2078002820D00020207101E0401C6070607801469E
:2024A00028290DDA584A01EB810302EBC30191F84920012AF0D1283100F0F0F9012020715F
:2024C0002079002804D105215048007800F0F2F90020207010BD70B5FFF7D6FF444C2078C0
:2024E000002806D0E068002803D100202070FFF7FAFEA08800283AD1434D95F8210001283A
:2025000008D12846FFF798FF002085F821002D20A08070BDA068002829D1607800281ED077
:20252000A07800281BD03A480078002817D1E078282606FB00F1294491F8491001290ED176
:2025400000F0DCF9E078704328442830FFF774FFE07870432844C06CA0602D20A080E07816
:20256000401CE070C0B2282801DB0020E07070BD10B50146244C2046282201F0BBFA012081
:2025800084F8210010BD18B4002002461E4B06E001EB810403EBC40181F84920401CC0B27A
:2025A00001462829F4DB11BC00F008BD10B528280CDA2822144B00EB800403EBC400283015
:2025C00001F088FABDE8104000F0F8BC10BD0D48012101700021417070470A484178282955
:2025E00004DA012101704178491C417070470000000000209029002000A24A04D0290020E2
:202600008B270020902A0020701100209C2A0020882A002030B400230479012C01D1022010
:2026200015E001240471022444710468A56845F00105A56003E0CC5C05682C605B1C934227
:20264000F9D301214171002101710068006830BC704780B50A4601468748FFF7DBFF90EAEF
:20266000102191EA104191EA1060C0B202BDF8B505460E462878552810D1804C2778324614
:202680002946E019001D01F025FAF0192070C0B26978491C884201DB01206070F1BD38B522
:2026A00004460D4601F070FA29462046BDE8344000F05EBA042901D1FFF78FBF704710B56D
:2026C00004466178FFF7C5FF6178615C884240F07F80A0786A490870E078022803D1201DB8
:2026E000FFF746FF66E0032802D1FFF74CFF61E0042804D1611D2079FFF758FF5AE005280D
:2027000002D1FFF764FF55E00C2803D100205D4908704FE00D2803D101205A49087049E075
:202720000F2805D1002058490870FFF7F9FA41E00E2805D1FFF7F8FA01205349087039E007
:20274000012804D12179A078FFF7B4FF32E0072803D1A07800F080F82CE0092804D101F088
:202760005FFA002826D10FE00A2807D13422A11DA08801F05FFA00281CD105E00B2808D15C
:2027800001F063FA002815D0E178A078BDE8104090E0112805D1207928280BDA3B4908702F
:2027A00008E0122806D14FF4FA732279611D384801F0B5FAE1780846052809D0012807D08A
:2027C0000A0005D0072803D0A078BDE810407DE010BD10B5294C6078002806D02178201DFB
:2027E000FFF76DFF00206070207010BD70B514461E46284D55222A7004226A70002901D0C7
:20280000097804E095F800114A1C85F80021A970E870002C07D032462146281D01F05AF9D5
:202820006878301868700499002908D0059C22466878284401F04EF968782018687069789C
:202840002846FFF706FF697868546878411CC9B22846BDE8704022E701B584B00E4802901C
:20286000002001900090042302AA04A90820FFF7BDFF05B000BD0000802A002084250020B8
:202880009C2A002001000020020000200300002010290020882600203110172001B582B065
:2028A000282001900091012302AA00210420FFF79DFF07BD03B583B00020019000900123F3
:2028C00004AA03A9FFF792FF05B000BD03B583B0002001900090012304AA03A91846FFF7A7
:2028E00085FF05B000BD02B582B001910090012302AA00210620FFF779FF07BD01B582B0A6
:20290000002001900090012302AA01461020FFF76DFF07BD00B583B00022019200920B4689
:20292000024600211320FFF761FF07BD80B50748016841F0100101600320FFF793FC022087
:2029400001F05CFC01F06EFC002002BD0020024010B586B01748016841F0200101600168B3
:2029600001F0200100910099016841F004010160016801F0040100910099016841F00801EF
:202980000160006800F00800009000980A4C01224FF480612046FFF7E0FB4FF480600190C6
:2029A000012002900220049001A92046FFF710FB06B010BD18100240000C014080B57F4867
:2029C0007F4941604FF4E13181600021C160016141610C2181610021C1610162001D01F04F
:2029E0006FF9002806D04E210FF2E410BDE80440FFF7ADBA01BD00687149884200D0704796
:202A000010B586B06F48016841F480410160006800F48040009000984FF40070019002209A
:202A2000029003200490684C01A92046FFF7D0FA4FF48060019000200290039001A92046C0
:202A4000FFF7C6FA002211462520FFF70CFC2520FFF718FC06B010BD10B5584C4FF4FA7319
:202A600006220FF2A411201D01F059F9642001F01FFC4FF4FA730D220FF29411201D01F0B5
:202A80004EF9642001F014FC4FF4FA7316220FF29011201DBDE8104001F041B9F8B54B4C7F
:202AA000A078002863D06078002122181171461C66700FF28411201D01F009FC050023D0F5
:202AC000F6B2A019001D85421ED23C4E234632460FF26C11284601F0FDFB2778607839468B
:202AE000884241D3307805283EDA3A21284601F003FCC4F80401002836D0401CC4F8040146
:202B00003946FFF7B4FD2FE00FF24411201D01F0DEFB050008D0F6B2A019001D854203D22C
:202B20000120264948701FE00FF23011201D01F0CEFB050008D0F6B2A019001D854203D21E
:202B400000201E4948700FE00FF21811201D01F0BEFB050008D0F6B2A019001D854203D23F
:202B60003146201DFFF7D6FE00206070A070F1BD70B590B004460D46104E7078002819D0D0
:202B80002B4632780FF2E801684601F0C1FB4FF4FA73C0B202466946301D01F0C0F84FF483
:202BA0007A7000F05DFD4FF4FA732A462146301D01F0B5F810B070BD000000000C2900202D
:202BC0000038014018100240000801407C240020473A5C6C6561726E5C62617272795F63DC
:202BE0006F64655C73746D33325C49525F73746D33326631303343385C5372635C757361DB
:202C000072742E6300000000415445300D0A000041542B4349504D55583D310D0A00000001
:202C200041542B4349505345525645523D312C36303030310D0A00002B4950440000000071
:202C40002B4950442C256868642C2568686400002C434F4E4E454354000000002C434C4F22
:202C60005345440043575341505F44454600000041542B43495053454E443D25642C25648B
:202C80000D0A000080B510481049016001F05AFB002806D042210FF23C00BDE80440FFF713
:202CA00056B901BD81B000680849884209D10848016841F040010160006800F04000009005
:202CC000009801B070470000802A00200030024014100240473A5C6C6561726E5C626172D2
:202CE00072795F636F64655C73746D33325C49525F73746D33326631303343385C537263D2
:202D00005C6372632E63000010B5094C00220949204601F048FB0849204601F05BFB074918
:202D2000204601F073FD2046BDE8104001F05BBB381C00203401002020000020240100201C
:202D40007047FEE7FEE7FEE7FEE770477047704780B501F0A3FDFFF7B3FAFFF75CFBBDE8A8
:202D6000014000F015B9394801F017BE3848FEF7AFBA10B5374C204600F02FF82046BDE85F
:202D8000104001F034B881B000200090314801680A6800924A680092009ACA6842F01002EB
:202DA000CA600168CA6842F48072CA6001684A6942F001024A610068C16841F02001C160FC
:202DC00001B0704781B00021009100680168009140680090009801B0704718B401680A6867
:202DE00012F00F0F06D0002200920A6800924A680092009A0A68D20616D5174A1278002AFD
:202E000008D10021009101680A68009249680091009909E0002200920A68009249680091FC
:202E2000009901210D4A117001680A6892060AD5094A137849680A4CE154591C11706FF03E
:202E400020010068016011BC70470000D8170020102A0020102900207D2400207E240020BF
:202E60008024002030B585B005460C4602F010F940F2151055490860002001900395A00A8C
:202E800004908102A14201D2401C049001200290694601A802F092F9044602F005F920464D
:202EA00005B030BD2DE9F04104460D4616464FF0010802F0EDF840F215104449086000279E
:202EC00001E07F1CBFB2B7EB560F0AD235F81720002304EB4701012002F094F880460028D7
:202EE000EFD002F0E1F84046BDE8F08110B53848006810F1010F10D03649096811F1010F0C
:202F00000BD14FF400613248FFF7ACFF4FF4C86231493048BDE81040C4E710F1010F10D125
:202F20002C48006810F1010F0BD04FF400612948FFF798FF4FF4C86227492548BDE81040E8
:202F4000B0E7234C4FF400612046FFF78BFF4FF400612048FFF786FF4FF4C8621E49204620
:202F6000BDE810409EE71A48016811F1010F09D118490A6812F1010F04D04FF4C86216489B
:202F800000F0A8BD4FF4C8620146134800F0A2BD12484168002901D0491E4160704710B5FD
:202FA0000E4C2078002808D06068002805D1FFF79DFF002020700A49087010BD074801210E
:202FC00001704FF4FA714160704700000C20024000F0000800F8000898110020882A002079
:202FE000030000202DE9F04182B00446DFF8F8542078C00756D5686800F00C00042807D06F
:20300000686800F00C0008280AD16868C00307D52868800346D56068002843D101206DE1C9
:203020006068B0F5803F04D1286840F4803028601DE0002808D1286820F480302860286829
:2030400020F48020286012E0B0F5A02F286807D140F480202860286840F48030286006E028
:2030600020F480302860286820F480202860606800280BD002F0A8FA06462868800311D495
:2030800002F0A2FA801B6528F7D334E102F09CFA06462868800305D502F096FA801B652830
:2030A000F7D328E12078800718D5686810F00C0F07D0686800F00C00082825D16868C003EA
:2030C00022D42868800702D520690128A6D1286820F0F800616940EAC1002860207800076F
:2030E0003ED5DFF81004A169002964D00121016002F06AFA0646686A80072ED402F064FA9B
:20310000801B0328F7D3F6E0DFF8EC732069002815D00120386002F057FA0646286880071E
:2031200005D402F051FA801B0328F7D3E3E0286820F0F800616940EAC1002860CEE700207C
:20314000386002F041FA064628688007C6D502F03BFA801B0328F7D3CDE0012000F0B2F98C
:203160002078400740F17F800027E869C00009D4E86940F08050E861E86900F080500090F0
:2031800000980127DFF87483D8F80000C00520D4D8F8000040F48070C8F8000002F014FA64
:2031A0000646D8F80000C00513D402F00DFA801B6528F6D39FE00021016002F005FA06461F
:2031C000686A8007CCD502F0FFF9801B0328F7D391E0E068012804D1286A40F00100286277
:2031E0001CE0002808D1286A400840002862286A20F00400286211E00528286A07D140F046
:2032000004002862286A40F00100286206E0400840002862286A20F004002862E06800283B
:203220000DD002F0D1F90646286A800715D402F0CBF9801B41F289318842F5D35BE002F0AA
:20324000C3F90646286A800707D502F0BDF9801B41F289318842F5D34DE0012F03D1E8692D
:2032600020F08050E861E069002846D0696801F00C0108293FF4D2AEDFF87C7202282DD1FE
:203280000020386602F0A0F906462868800105D502F09AF9801B0328F7D32CE0206AB0F55E
:2032A000803F05D1686820F40030A16808436860686820F47410216A0843616A084368602D
:2032C0000120386602F080F906462868800114D402F07AF9801B0328F7D30CE000203866E0
:2032E00002F072F906462868800106D502F06CF9801B0328F7D3032000E00020BDE8F68113
:203300002DE9F04104460D467D4E306800F00700A84209D23068C00855EAC0003060306823
:2033200000F00700A84261D16F4F2078800705D5786820F0F000A168084378602078C00758
:2033400045D56068012803D13968890308D44DE00228396802D1890102D447E0890745D589
:203360007968890850EA8100786002F02DF98046606801280DD1786800F00C00042826D09D
:2033800002F022F9A0EB080041F289318842F2D31BE002280DD1786800F00C00082816D01C
:2033A00002F012F9A0EB080041F289318842F2D30BE0786810F00C0F09D002F005F9A0EBC7
:2033C000080041F289318842F3D3032031E0306800F0070085420BD23068C00855EAC000A2
:2033E0003060306800F00700A84201D0012020E02078400705D5786820F4E060E168084351
:2034000078602078000706D5786820F46050216940EAC100786000F00EF83A497A68C2F359
:203420000312895CC84032490860022000F0E6FE0020BDE8F08100B585B001A80FF2D8010E
:20344000102200F057FB0FF2E0000088ADF800002D48016801F00C02042A02D0082A02D009
:2034600014E02A4813E001AAC1F38343D25CC90309D569460068C0F34040085C2349B1FB30
:20348000F0F0504303E02248504300E0174805B000BD17480068704780B5FFF7FAFF1D4920
:2034A000194A1268C2F30222895CC84002BD80B5FFF7EFFF1749144A1268C2F3C222895CDB
:2034C000C84002BD81B00A490968C9084FF47A72B1FBF2F14843009000BF0098411E00913F
:2034E0000028F9D101B070470010024000127A001000002080044242000042420070004028
:20350000002002405C720008041002400024F40000093D00547300080203040506070809C4
:203520000A0B0C0D0E0F1010010200002DE9F04182B004462078C00753D50026344DA8691B
:20354000C00009D4A86940F08050A861A86900F080500090009801262E4F3868C00510D4CE
:20356000386840F48070386002F02EF880463868C00506D402F028F8A0EB08006528F6D3D7
:2035800021E0E86910F440701FD0616801F4407188421AD0E86920F440701F4901220A6009
:2035A00000220A60E861C0070FD502F00DF88046E869800709D402F007F8A0EB080041F262
:2035C00089318842F4D3032020E0E86920F4407061680843E861012E03D1A86920F0805017
:2035E000A8612078800706D5094D286820F44040A168084328602078C00606D5044D286858
:2036000020F48000E168084328600020BDE8F6810410024000700040400442420F48002178
:20362000026851626FF001010268116101680A6842F001020A6001680A69D207FCD5086ABE
:2036400041F21112104208D1086A40F24442104203D10868400840000860704750290020E9
:2036600010B5044601E0FFF7D9FF2046441E80B20028F8D110BD3EB50446A078002839D04E
:20368000142506211820FEF766FE07200290E0780190062000900C23024601460120FEF70D
:2036A0005BFE0520029020780190062000900C23024601460120FEF74FFE0F2D0BDB0320B5
:2036C000029060780190062000900C23024601460120FEF741FE142D0BDB05200290A07830
:2036E0000190062000900C23024601460120FEF733FE37BD6078002801D00F25C1E7207845
:203700000028F6D00C25BCE738B5044649F64040FEF7EDFD002506E02046FFF7ACFF0A20D6
:2037200000F0C6FD6D1C032DF6DB31BD10B584B0044649F27040FEF7DAFD2D212078FEF789
:203740000AFE08200290607801901120009006231A4611460120FEF7FFFD08200290A078B9
:2037600001901120009006231A4611460120FEF7F3FD08200290E078019011200090062384
:203780001A4611460120FEF7E7FD08200290E078C043C0B201901120009006231A461146BF
:2037A0000120FEF7D9FD01200290002001901120009006231A4611460120FEF7CDFD1FBD5C
:2037C00038B5044648F6A040FEF791FD09211B20FEF7C1FD01200090034605220146002071
:2037E000FEF7E5FD03200090207800F00703052201210020FEF7DBFD154D2878002808D075
:20380000012000900346092201460020FEF7CFFD07E0012000900023092201461846FEF7DB
:20382000C6FD2878411E8941C90F2970082000906378052201210020FEF7B9FD082000902C
:20384000A378052201210020FEF7B1FD31BD00BF972A002038B5044648F6A040FEF747FD25
:20386000012000900346092200210846FEF79FFD01200090607800F03F0040F040030922CD
:2038800000210846FEF793FD174D2878002808D0012000900346092200210846FEF787FD23
:2038A00007E0012000900023092219460846FEF77EFD2878411E8941C90F29700520009016
:2038C000207800F01F03092200210846FEF76FFD06200090607800F03F03092200210846E9
:2038E000FEF765FD31BD00BF962A00202DE9F04F8BB004460025A8462E4602E06D1CEDB279
:20390000761CF6B23046032803DA2044407BFF28F4D1022D0FD140460146CDE9040101202C
:203920008DF80C008DF80800CDE906018DF80D008DF809001AE0032D40F0A4804046014641
:20394000CDE9040101208DF80C008DF8080004ABC3E9020103AA0220507002AE03207070CD
:20396000C3E90401022090700320B070DFF85C91084689F80000DFF858A1E07A8AF80000F2
:20398000012089F80000207B8AF80100022089F800000E462CE07F1CFFB2AF4225DAD4E96B
:2039A000002302A8C05D002102400B4004A800EBC70CDCE900018B42EDD18242EBD199F8A3
:2039C0000000E119497B0AF80010401C89F8000003AA12F807B0D4E900015A4601F0FAFD86
:2039E000C4E90001D8445FFA88F8AF424AD0761C3046A17AC0B2884204D24046102801DA4B
:203A00000027CAE7D4E90001CDE9000120890021C8F1400201F0EEFDDDE900231043194320
:203A2000C4E9000100E0761C3046A17AC0B288422AD2002701E07F1CFFB2AF4220DAD4E9A1
:203A4000002302A8C05D002102400B4004A800EBC70CDCE900018B42EDD18242EBD199F802
:203A60000000E119497B0AF80010401C89F80000D4E9000103AAD25D01F0ACFDC4E90001B7
:203A8000AF42D0D1002000E001200BB0BDE8F08F10B5FFF72BFF002817D049F27040FEF7C0
:203AA00026FC002407E0FEF72FFC0948005DFFF7D7FD641CE4B205480078844205DA20465B
:203AC000C007F0D5FEF724FCEFE710BD952A00208C28002062B38B0708D0521E11F8013BBB
:203AE00000F8013B00F024808B07F6D1830740F0208000BF103A07D330B4B1E83810103A59
:203B0000A0E83810F9D230BC530724BFB1E80810A0E8081044BF51F8043B40F8043BD207B5
:203B200024BF31F8022B20F8022B44BF0B7803707047083A07D3B1E80810083A40F8043BD1
:203B400040F804CBF7D25307E4E7000038B51C4C1C4D00224FF480702918204600F05EFE6A
:203B60002946204600F063FE002032BD002070470020704780B50968C9B2FEF778FD10487F
:203B800000F074FE002002BD70B50C460C4DD5F81812D1F81412002901D0012070BD0A4E8E
:203BA000224601463046FFF795FF22463146284600F034FE2846BDE8704000F03EBE000038
:203BC000381C00207C2000207C21002010B588B00446684601F099FB009840F0080000901E
:203BE0002E4805908DF8184001F052FA01F063FA01F032FB684601F055FB01F068FA01F001
:203C000053FA4FF4FA7000F053FB012080F313884FF000602249086001F060FA08B010BDFB
:203C200080B54FF4E0411F48FFF71CF9401E8041C00F02BD10B534231A4C03FB0040FFF716
:203C400031F9401E8041C00F10BD10B51649174A51F8040D904202D015488142F8D2154CB1
:203C600010222046FFF746FFA06882080D49124800F079FB11490A78E168884205D00B21DB
:203C80001046FEF717FE002010BD0B211046FEF71DFE0820FFF79AFF012010BD04F8FF1F86
:203CA00008ED00E00080000800F000085AA55AA501800008702A0020802A00209C2A0020BE
:203CC00038B5050001D1012032BD05F138046078002804D1002020702846FEF78CFE242028
:203CE00060702868C16821F40051C160284600F0D7F92868016921F490410161286841690A
:203D000021F02A0141612868C16841F40051C1600020606020206070A070002032BD2DE940
:203D2000F84304460D4616461F4604F1380898F80100202858D1002D01D0300001D1012092
:203D400053E098F8000001284ED0012088F800000020C8F80400212088F8010001F034FCF1
:203D60008146A684E68403E015F8010B21684860E08C002826D0E08C401EE084A068B0F556
:203D8000805F00974B4614D100228021204600F0B4F8002801D0032027E02888C0F30800E4
:203DA000216848602069002801D1AD1CE0E76D1CDEE700228021204600F09FF80028D3D0F6
:203DC000032012E000974B4600224021204600F094F8002801D0032007E0202088F801007D
:203DE000002088F8000000E00220BDE8F28338B5044622681068D168526910F00F0307D1F0
:203E0000850605D58D0603D52046BDE83240FBE0002B61D0D30702D411F4907F5CD00346E5
:203E2000DB0705D5CB0503D5E36B43F00103E363430706D51346DB0703D5E36B43F0020395
:203E4000E363830706D51346DB0703D5E36B43F00403E363030705D5D20703D5E26B42F0C2
:203E60000802E263E26B002A46D0800604D5880602D5204600F0C8F820684069800900F0E2
:203E80000100E16B090701D400281FD0204600F067F820684169490613D5416921F04001BF
:203EA0004161606B00280CD00FF2D5014163606B01F0B2FB00281FD0606B416BBDE8344006
:203EC00008472046BDE83240FEF77CBF2046FEF779FF0020E06331BD020605D50A0603D5F8
:203EE0002046BDE8324051E0400605D5480603D52046BDE832407AE031BD2DE9F041044678
:203F00000D4616461F46DDF81880206800682840A84201D1012000E00020B0421DD118F102
:203F2000010FF2D0B8F1000F04D001F04DFBC01B8045EAD22068C16821F4D071C1602068DE
:203F4000416949084900416104F1380020214170817000210170032000E00020BDE8F081A0
:203F60000168CA6822F49072CA6001684A69520852004A61202180F83A1070470000000037
:203F8000406A0021C185C184FEF71CBF90F8391021292AD1016A8268B2F5805F0ED109889A
:203FA000C1F3080102685160016A0269002A02D1891C016207E0491C016204E04A1C0262F1
:203FC000097802685160C18C491EC18489B2002909D10168CA6822F08002CA600068C16824
:203FE00041F04001C160002070470220704780B50168CA6822F04002CA60202180F839102E
:020000040800F2
:20400000FDF720FF002002BD80B590F83A10222944D10269816A8368B3F5805F11D1036832
:20402000002A5A6806D1C2F308020A80816A891C816215E002F0FF020A80816A491C81625C
:204040000EE0002A05D14A1C8262026852680A7006E04A1C82620268526802F07F020A7049
:20406000C18D491EC18589B2002915D10168CA6822F02002CA600168CA6822F48072CA6035
:2040800001684A69520852004A61202180F83A10FDF7D8FE002002BD002002BD022002BD41
:2040A0002DE9F04704462068016921F44051E268114301612068C1684E4A1140A2681143D9
:2040C0002269114362691143C1602068416921F44071A269114341616425192620684649E9
:2040E000884242D1FFF7E3F90746FFF7E0F98046FFF7DDF98146FFF7DAF98246FFF7D7F945
:204100006168890006FB07F2B2FBF1F22B46B2FBF3F206FB08F3B3FBF1F306FB09F7B7FB7F
:20412000F1F7AC46B7FBFCF705FB17331B0132332F46B3FBF7F303F0F00303EB021206FB3F
:204140000AF3B3FBF1F37043B0FBF1F02946B0FBF1F005FB103000013230B0FBF1F000F077
:204160000F0080182168886041E0FFF795F90746FFF792F98046FFF78FF98146FFF78CF92E
:204180008246FFF789F96168890006FB07F2B2FBF1F22B46B2FBF3F206FB08F3B3FBF1F372
:2041A00006FB09F7B7FBF1F7AC46B7FBFCF705FB17331B0132332F46B3FBF7F303F0F0030F
:2041C00003EB021206FB0AF3B3FBF1F37043B0FBF1F02946B0FBF1F005FB10300001323070
:2041E000B0FBF1F000F00F00801821688860BDE8F0870000F3E9FFFF0038014010B50446AD
:20420000074800684FF47A71B0FBF1F0FEF73CF8002221464FF0FF30FEF725F8002010BD0E
:204220001000002080B52048016841F001010160006800F00100009000980320FEF712F811
:20424000002211466FF00B00FEF70DF8002211466FF00A00FEF707F8002211466FF00900CA
:20426000FEF701F8002211466FF00400FDF7FBFF002211466FF00300FDF7F5FF002211464A
:204280006FF00100FDF7EFFF002202214FF0FF30FDF7E9FF0548016821F0E061016001687B
:2042A00041F00071016001BD181002400400014031B501F089F90446009D15F1010F00D068
:2042C0006D1C01F081F9001BA842FAD331BD01F001BA00000DB400B582B004A800900A464A
:2042E0006B4603A9034878440A3001F029FA06BC5DF810FBE7D6FFFF0278C9B28A421AB1A3
:204300001CBF10F8012FF9E718BF0020704700000CB41CB5044604A801900A46009401AB54
:20432000694607487844183001F080FC009A0021117000285CBF0098001B16BC5DF80CFBAE
:2043400007DBFFFF10B5040001D1012010BD6079002804D1002020712046FEF7A3FC012052
:204360006071002010BD30B400230479012C01D1022016E001240471022444710468A568F6
:2043800045F00105A56004E051F8234005682C605B1C9342F8D3012141710021017100686E
:2043A000006830BC704710B5002801D1022010BD4FF4FE7303449C69002C01D000249C6126
:2043C000002900D0596101211970027001F033FD002010BD0022002902D0C0F8141200E024
:2043E00002221046704780B501F068FD002002BD0020704710B50224D0F81422002A04D064
:2044000012689047002800D10024204610BD80B5D0F8142252689047002002BD38B5044621
:204420004FF402702518284602F02AF84FF4FA70204401210160418B4160007D10F01F016A
:2044400003D002290BD005D30EE02946204601F0F1FD0EE02946204601F010FE09E02946EF
:20446000204601F027FE04E000F08001204601F055FD002032BD38B5044610464FF4FA7277
:2044800022440B0022D11168032928D14FF4867121444B680D68AB420BD2EA1A0A6049686A
:2044A0008A4200D30A4692B20146204602F056F815E0106A0169080004D0107A032801D1A0
:2044C00020468847204602F051F808E0106A8369180004D0107A032801D1204698470020E0
:2044E00032BD38B5044610464FF4FA72A5180A0045D12968022939D104F118014A688B683B
:2045000093420DD2D21A4A6092B20146204602F00DF800231A461146204601F049FD25E0ED
:204520000868B0FBF3F103FB1101002912D1984210D3696888420DD200221146204601F059
:20454000F5FF00206860034602460146204601F02FFD0BE0286AC168080004D0287A0328D5
:2045600001D120468847204602F00BF8287B01280ED12046FFF73CFF0020287308E0286A62
:204580004269100004D0287A032801D120469047002032BD10B5044640230022114601F0C5
:2045A0009CFC4020C4F81001034600228021204601F093FC201D4021C1614FF4FE71621858
:2045C00001211170D169002905D00168C9B22046926952689047002010BD017400207047F1
:2045E0004FF4FE7108440178417004210170002070474FF4FE710844417801700020704727
:2046000080B54FF4FE7101440A78032A04D18969C9690A0000D08847002002BD70B50546CE
:204620000024287C00280ED14FF4007302228121284601F052FC4FF4007302220121284618
:2046400001F04BFC0BE0402302228121284601F044FC402302220121284601F03EFC082302
:2046600003228221284601F038FC4FF4077001F0B2FC06004FF406702844066001D10124FE
:2046800018E04068006880474FF4017030442146016141610268287C002806D14FF40073F5
:2046A0000121284601F084FC04E040230121284601F07EFC204670BD10B50446812101F082
:2046C0001EFC0121204601F01AFC8221204601F016FC4FF4067004442068002807D06068D5
:2046E00040688047206801F085FC00202060002010BDF8B504460D464FF4067023181E6800
:20470000297811F0600023D0202829D1EA886878170017D0090609D531465B689B68984709
:20472000EA883146204601F0F2FE19E04FF4007131440870E8884870EA883146204601F047
:20474000FDFE0DE0002229465B689B68984707E068780A2804D101222749204601F0D7FEAE
:204760000020F2BDD0F81802002804D00021C0F81412084670470220704770B54FF40672CF
:20478000841825684FF40172AE1801F020FCB0602068002808D04FF4037029183068626876
:2047A000D2689047002070BD022070BD10B54FF40671084401684368002B0AD04FF40070B5
:2047C0000C182078FF2804D062789B689847FF202070002010BD432101800848704743217A
:2047E00001800748704743210180064870470A2101800548704700009D2A00209C000020F5
:2048000058000020E0000020140000200222002902D0C0F81C12002210467047D0F81802D6
:204820004FF4027318440160826000207047D0F81802C0F804120020704780B5D0F818129C
:20484000002911D04FF402721144CA68002A09D10122CA608B689BB20A68812101F099FBE6
:20486000002002BD012002BD022002BD80B5D0F81812002910D0D1F80422017C002905D1FD
:204880004FF40073012101F093FB03E04023012101F08EFB002002BD022002BD024801686C
:2048A000491C0160704700BF982A002070B586B005460024002D01D1012053E04FF4856095
:2048C0002E187078002804D120463070284601F05DFA03207070286801F06AFE291D83B08C
:2048E00068462022FFF706F90EBC286801F054FE2146286801F065FE0CE005EB4410283063
:2049000001214170047084810021C170016141618161641C0F2CF0D3002422460DE005EB2C
:2049200044104FF40A7101444A700C7084861046C870086148618861641C0F2CEFD3291D94
:2049400083B068462022FFF7D5F80EBC286801F03AFE002085F8240001207070286802F0AA
:20496000F3F9002006B070BD10B5044694F82804012801D1022010BD012084F82804014687
:20498000204601F038FB206802F0DCF9206801F007FE002084F8280410BD10B50446206894
:2049A00002F0D4F9000402D5204600F07DF9206802F0CCF940050ED52068B0F844104FF661
:2049C000FF321140A0F84410204601F014FA0021204600F07BF8206802F0B8F9400407D5CF
:2049E0002068B0F844104BF6FF721140A0F84410206802F0ABF9800407D52068B0F8441042
:204A00004DF6FF721140A0F84410206802F09EF9C0041AD52068B0F840104FF6FB7211405E
:204A2000A0F840102068B0F840104FF6F7721140A0F84010204601F0FAF92068B0F8441059
:204A40004EF6FF721140A0F84410206802F07EF900051DD52068B0F8401041F00801A0F82A
:204A600040102068B0F844104FF2FF721140A0F844102068B0F8401041F00401A0F84010D5
:204A8000206802F063F9C00402D4204601F0C0F9206802F05BF980050AD52068B0F84410E0
:204AA0004FF6FF521140A0F84410204601F09FF9206802F04BF9C00507D52068B0F8441051
:204AC0004FF6FF621140A0F8441010BD10B5044694F82804012801D1022010BD012084F8D8
:204AE000280484F82410206802F025F9002084F8280410BD38B5044601F07F0004EB4010C7
:204B00000D0601D5283002E04FF40A75284401F07F050570C90941700261C37094F8281479
:204B2000012901D1022032BD012184F828140146206801F057FD002084F8280432BD10B5FE
:204B4000044601F07F0004EB40100A0601D5283002E04FF40A72104401F07F020270C90973
:204B6000417094F82814012901D1022010BD012184F828140146206801F074FE002084F829
:204B8000280410BD38B501F07F0400EB44144FF40A752C446261A3610022E261627011F047
:204BA0007F0121700068214602D101F00DFF01E001F00AFF002032BD01F00F0100EB41101E
:204BC000D0F8440280B2704710B501F07F0400EB441428346261A3610022E26101226270E5
:204BE00011F07F0121700068214602D101F0ECFE01E001F0E9FE002010BD38B504460A46F9
:204C0000080605D502F07F0004EB4010283004E004EB41104FF40A7318440123837001F05C
:204C20007F050570D109417094F82814012901D1022032BD194684F828140146206802F043
:204C40000DF8002D04D104F22C41206802F081F8002084F8280432BD10B504460A460806D3
:204C600005D502F07F0004EB4010283004E004EB41104FF40A7318440023837001F07F018B
:204C80000170D109417094F82814012901D1022010BD012184F828140146206802F00AF8C8
:204CA000002084F8280410BDF8B504460020ADF80200ADF8000029E0018848F60F7211405A
:204CC000018004F124052068B0F850102A7901EBC20100EB410000F204400068C0F30900CD
:204CE0002862A9690844A8610021204601F078F8287800280AD0E869002807D1287840F018
:204D000080002168A1F84C0000202870206800F144010A88ADF80220120440F17181BDF8E8
:204D2000022012F00F067BD1BDF80220D206C3D50288ADF80020BDF8002012051ED54FF436
:204D40000A72A51889892A7801EBC20100EB410000F20C400068C0F30903EB61AA8804F2B2
:204D60002C41206802F00AF82068018840F68F7211400180204601F025F8C7E7BDF8001049
:204D80000904C3D5018840F68F721140018020684FF40A716518B0F850102A7801EBC201C0
:204DA00000EB410000F20C400068C0F30903002BEB6108D0AA886969206801F0DFFF6869E7
:204DC000E969084468610021204601F001F82068B0F8501000EB410000F20C4029693F2907
:204DE0000AD34A0911F01F0F00D1521E910241F4004189B2016006E04A08C90700D5521C23
:204E0000910289B20160206801884BF68F72114081F4405141F4004141F08001018075E7B4
:204E200030F82610ADF80010BDF8001009046CD530F8261040F68F72114020F8261004EB29
:204E400046104FF40A7145182A78D30020680146AF7A002F11D1B0F850209A1801EB42016A
:204E600001F20C410968C1F30907002F37D03B46AA88696901F082FF31E030F822205204BF
:204E8000B0F850200FD59A1801EB420101F204410968C1F30907002F14D03B46EA886969F0
:204EA00001F06CFF0EE09A1801EB420101F20C410968C1F30907002F04D03B462A89696949
:204EC00001F05CFF2878216831F8202048F68F731A4042F4004242F0C00221F82020384617
:204EE000E9694118E9616969CA196A61AB69002B02D02969884204D22978204600F068FF9C
:204F000003E029782046FFF73DFEBDF8000000067FF5FCAE04EB461000F12805206830F88A
:204F2000261048F60F72114020F826102978CA0023681846AE7A002E12D1B3F850105118DC
:204F400000EB410000F204400068C0F30903002BEB6139D0AA886969206801F0FCFE33E0BE
:204F600033F821104906B3F8501010D5511800EB410000F204400068C0F30903002BEB612D
:204F800015D0EA886969206801F0E5FE0FE0511800EB410000F20C400068C0F30903002B78
:204FA000EB6104D02A896969206801F0D4FE2878216831F8202048F68F731A4042F440421D
:204FC00042F0800221F820202068B0F850102A7801EBC20100EB410000F204400068C0F366
:204FE0000900E86169690A186A61AB692978002B204602D100F0F4FE88E6FFF7E5FD85E6F4
:205000000020F2BD2DE9F04780468A4614461D46634E307E012801D1022037E001203076C7
:205020004CF25037384600F065F801002CD1B8F1010F02D14FF0010807E0B8F1020F02D19A
:205040004FF0020801E04FF004084FF0000903E009F101095FFA89F9C14515DA2046294607
:205060004FEA091200F0B6FA014689B20AEB490000F036F8384600F03DF84A490A6852085C
:2050800052000A600100E3D000213176BDE8F0874648C168090605D545490160454901603E
:2050A00000207047012070473E48016841F0800101600020704740488168890505D43C490B
:2050C00001603C49016000207047012070473548016821F40071016000207047FDF7D3B8B7
:2050E00000222F4BDA612F4A136843F0010313600180704738B5044600F066FA05462A48BF
:205100000168C9070BD514F1010FF8D0002C04D000F05AFA401B8442F1D2032032BD0168F6
:20512000890601D5202101600168C90605D40169C90702D40068400703D500F004F80120B3
:2051400032BD002032BD002117480268D20605D5134AD16941F00201D161102102685207C4
:2051600006D50F4AD36943F00103D36141F004010269D20708D50A4AD36943F00403D361FF
:20518000026952085200026140F20112914204D10169490849000161704701607047000073
:2051A000502A0020102002400C2002400420024023016745AB89EFCD082002402DE9F84394
:2051C00004460D460126DFF8E473387E012801D102203FE0304638764CF25038206802284F
:2051E000404611D1FFF786FF002830D1304600F09AF84046FFF77EFF0646DFF8B40301686F
:2052000021F00401016022E0FFF774FF00281ED14FF0FF302860D4F8089001E009F5806973
:20522000E068A16801EB8020814510D2484600F0AEF94046FFF75EFF0646DFF874030168E8
:2052400021F0020101603000E8D0C5F80090002038763046BDE8F28370B500F08AF9044664
:205260004CF250352846FFF745FF010019D10020CE49C861CE4E306840F02000306030684C
:2052800040F0400030602846FFF734FF316821F020013160010004D12046C0B2BDE8704018
:2052A00000E170BD38B504460120C04D297E012901D1022032BD014629762178C9070AD599
:2052C000A0686168012902D100F03AF801E000F090F8010016D12178890704D5207C00F00F
:2052E000E1F801000ED12178490704D5607C00F005F9010006D12178090703D5217E6069A8
:2053000000F019F90021297632BD10B504460720206000F02BF9A06000F02BF9207400F07A
:2053200031F9607410BD0020A049C861A048016841F004010160016841F040010160704795
:205340002DE9F843044600F011F9A04300F0FF04C0F30725C0F30746070E4CF250384046A2
:20536000FFF7C8FE010042D100209049C861FFF773FF01003BD1DFF83892D9F8001041F013
:205380001001C9F800102146FF2906D08A480188214001804046FFF7ADFE010009D1294618
:2053A000FF2906D084484188294041804046FFF7A1FE010009D13146FF2906D07E488188F6
:2053C000314081804046FFF795FE010009D13946FF2906D07848C1883940C1804046FFF7B5
:2053E00089FED9F8001021F01001C9F80010BDE8F2832DE9F843044600F0B8F8204300F0AA
:20540000FF04C0F30725C0F30746070E4CF250384046FFF76FFE010042D100206349C861DD
:20542000FFF71AFF01003BD1DFF88491D9F8001041F01001C9F800102146FF2906D05E4865
:205440000188214301804046FFF754FE010009D12946FF2906D058484188294341804046AC
:20546000FFF748FE010009D13146FF2906D052488188314381804046FFF73CFE010009D1F7
:205480003946FF2906D04C48C1883943C1804046FFF730FED9F8001021F01001C9F8001077
:2054A000BDE8F28370B504464CF250352846FFF721FE010021D100203C49C8613C4E30683A
:2054C00040F020003060306840F0400030602846FFF710FE316821F02001316001000CD1A8
:2054E000306840F010003060344804802846FFF701FE316821F01001316070BD70B50646F7
:205500004CF250342046FFF7F5FD010012D100202649C861264D286840F01000286046F0DE
:205520008800274908802046FFF7E4FD296821F01001296070BDF8B504460D464CF2503637
:205540003046FFF7D7FD01000FD100201749C861174F386840F01000386025803046FFF792
:20556000C9FD396821F010013960F2BD154800687047A5200F49096801F00201022900D160
:20558000002070470B480068C0F3820070470021064AD16106490A6842F002020A604860E1
:2055A000086840F04000086070470000502A0020102002401C20024008F8FF1F00F8FF1F2E
:2055C00002F8FF1F2020024001480068704700BF982A0020D2B2203A22BF21FA02F000213B
:2055E00070472032D141D04048409140D140484070470000D2B2203A22BF00FA02F100200B
:2056000070475242D041D2F1200291404140D040904041407047000010B5002490F821103D
:20562000022904D0042134304160012441E001680A6822F00E020A6001680A68520852000D
:205640000A600168DFF87020914201D1012123E0DFF86820914201D110211DE0DFF86020BD
:20566000914202D14FF4807116E0DFF85820914202D14FF480510FE0DFF84C20914202D179
:205680004FF4803108E0DFF84420914202D14FF4801101E04FF08071DFF8342011600121AA
:2056A00080F82110214680F82010416B0A0000D08847204610BD0000080002401C00024002
:2056C0003000024044000240580002406C0002400400024070B50C462578290006D170BD03
:2056E00011F8013F1678B34206D0401C2946FEF703FE28B10146224612F8013F002BEFD18A
:2057000070BD000003460846C2680169521C491E00290161C26003D40068012200211847CD
:205720004FF0FF307047034608461146C268521E11F1010FC26002D0006800221847704716
:205740002DE9F04788B0044600914FF0FF35186801902E460020039002920FF2B0470FF2B1
:20576000A4486FF0004902E00298401C0290DDF808A09AF80000A0F10903052B07D320282D
:2057800005D0E0B9002EB8BF00263046CCE00398401C0390012200980021A047A0F10901C6
:2057A0000529F4D32028F2D00399491E10F1010F0391D9D0014600980022A047D4E72528A9
:2057C00005D10AF101000290002005901BE00398401C0390012200980021A0479AF80010C6
:2057E0008842C1D0024669462046FFF79CFFC9E70599494505D001EB810302EB43013039A5
:205800000591401C029002980278A2F130010A29EED3069501784046FEF76EFD20B10298D3
:20582000401C0290401E00788DF81C009DF81C00682801BF02990A78682A622006D06C2867
:2058400002BF029908786C2804D171208DF81C00481C0290029801783846FEF74DFDB0B9A2
:205860000398401C0390012200980021A047A0F109010529F4D32028F2D00399491E10F13D
:20588000010F039103D0014600980022A04700208DF81D0002980078252812D0582832D024
:2058A000632835D0642818BF69282CD06F2818BF702828D073281BD0752818BF782822D0DE
:2058C00012E00398401C0390012200980021A04725281FD00399491E10F1010F039105D0D0
:2058E000014600980022A047002008E0284606E001226946204600F01AF801280ADA002EEF
:205900007FF543AF10E06946204600F06BF8F4E70022EEE7002E9DF81D0048BF00260028C2
:205920003FF422AF761C1FE708B0BDE8F0872DE9F8430D468046686900270128164604DA32
:20594000002E14BF6FF00040012028616868686050F8044B686007E004F8019B0120687787
:205960000227A869401EA861E9682869491C401E00282861E9601FD4286801220021C04719
:20598000814619F1010F0CD0012E06DBA9F10900052806D3B9F1200F03D0A8690028DBD100
:2059A00001274A4629464046FFF7BDFE0EB1022F11D0022F03D112E04FF0FF39F1E7F80773
:2059C00002D419F1010F03D14FF0FF30BDE8F2830020BDE8F283A86910B10020207001209E
:2059E000BDE8F2832DE9F0430C4689B0804660690128B8BF6FF000402061E9464046FFF7BF
:205A000081FE07462B2F18BF2D2F13D18DF800700DF10109E1682069491C401E002820610E
:205A2000E16005D4206801220021C047074601E04FF0FF37A06800780025642814BF752835
:205A40000A260DD0692808BF002609D06F2808BF082605D070281ABF40F0200078281026EA
:205A6000302F30D1E16820690125491C401E00282061E16005D4206801220021C047074628
:205A800001E04FF0FF3747F02000C0B2782817D1002E18BF102E1FD1E16820691026491CBF
:205AA000401E00282061E16006D4206801220021C047074600250FE04FF0FF3700254BE0CB
:205AC00056B9082608E006BB0A261EE0206801220021C04707460125302F0BD12069411E49
:205AE000E0682161401C0029E060EFD54FF0FF37012500E04DB1302009F8010B05E0206810
:205B000001220021C0470746012517F1010F23D0F9B26129A8BF573909DA4129A8BF37396C
:205B200005DAA1F130020A2A34BF3039FF21C9B2F0B2814210D20DF11F00814538BF09F875
:205B4000017B2069411EE0682161401C0029E060D5D54FF0FF3701253A4621464046FFF7AA
:205B6000E2FD3DB9E9450ABF17F1010F00204FF0FF3043E0002089F80000A06800786428E3
:205B800018BF692808D1002332460021684601F003F9012161770AE032460021684601F051
:205BA000E3F901216177A168097870291FD0217F622907D068290CD06C291CBF74297A29DE
:205BC0000ED014E06168616051F8042B6160107013E06168616051F8042B616010800CE07E
:205BE0006168616051F8042B6160106005E06168616051F8042B61601060012009B0BDE8DB
:205C0000F0830000686C747A4C00000063436E5B0000000070B504461E000846154604D08A
:205C200015F8011BA047761EFAD170BD2DE9F04683B08246894614461F4607E00123224680
:205C400049465046FFF7E6FF8146641C2078010003D1002003B0BDE8F0862528EED16078BE
:205C6000A41C2528014618D058285CD063280ED0642818BF692814D06F2854D0702858D080
:205C800073285DD0752818BF78284CD0DEE73868386050F8041B3860C9B24846D047814629
:205CA000D4E73868386050F8045B3860002D03D52D214846D047814664206F2808BF0822E7
:205CC00005D040F02001782914BF0A2210220B216428AC4603D1002D48BFCCF1000CBCFB9A
:205CE000F2F502FB15CC0CF130065FFA86FC4B1EBCF13A0FA4BFA0F15106B4440DF803C067
:205D000019465FEA050C01D00129E8DA4846D1F10B090DEB0105C2D015F8011BD047B9F12F
:205D20000109F9D1BBE73968396051F8045B3960C3E73868386050F8045B38607820BCE716
:205D40003868386050F8045B3860284601F036F906004846A3D015F8011BD047761EFAD198
:205D60009DE7000010B59D4C01224FF480612046FCF7F3F94FF4FA70FEF79AFA00224FF4CA
:205D800080612046BDE81040FCF7E7B980B500689349884215D1FFF7E5FF9248016841F4B9
:205DA00000010160006800F4000000900098002211461420FCF757FA1420BDE80240FCF7FE
:205DC00061BA01BD00F22C41D0F85C04FEF726BB00EB4112D2F83C22D0F85C04FEF74BBB04
:205DE00000EB4112D26BD0F85C04FEF77ABBD0F85C04FEF705BC10B504460121D4F85C049B
:205E0000FEF7EBFBD4F85C04BDE81040FEF7C2BB10B50446D4F85C04FEF7E2FBA0690028D6
:205E200004D07148016841F00601016010BDD0F85C04FEF7DEBB10B504466C48C0F85C4435
:205E4000C4F820026649016008214160022181600021C1608161C1610162FEF727FD00289C
:205E600005D04FF499710FF29010FCF770F8182300221146D4F8200201F0BBF85823002221
:205E80008021D4F8200201F0B4F8C02300228121D4F8200201F0ADF84FF488730022012129
:205EA000D4F8200201F0A5F84FF4807300228221D4F8200201F09DF8002010BD10B5002421
:205EC000D0F82002FEF750FD002804D0022801D1012400E00224204610BD38B51C460025CC
:205EE00013462246D0F82002FEF704FE002804D0022801D1012500E00225284632BD10B5B9
:205F00000024D0F82002FEF71AFE002804D0022801D1012400E00224204610BD10B5002427
:205F2000D0F82002FEF769FE002804D0022801D1012400E00224204610BD10B50024D0F814
:205F40002002FEF789FE002804D0022801D1012400E00224204610BDD0F8200201F07F02F1
:205F600000EB4210090602D590F82A00704790F82A02704710B50024D0F82002FEF7A6FDBF
:205F8000002804D0022801D1012400E00224204610BD10B50024D0F82002FEF715FE0028A8
:205FA00004D0022801D1012400E00224204610BD10B50024D0F82002FEF7E4FD002804D00E
:205FC000022801D1012400E00224204610BDD0F82002FEF7F1BD064870470000000C014088
:205FE000005C00401C10024010ED00E0D81700205C1E002070477047473A5C6C6561726EB4
:020000040800F2
:206000005C62617272795F636F64655C73746D33325C49525F73746D333266313033433871
:206020005C5372635C757362645F636F6E662E630000000080B54A78092A1BD8DFE802F066
:2060400011171A141A08051A0E0B00F0C3F813E000F04CF910E000F06EF90DE000F0B6F9EA
:206060000AE000F0C9F907E000F0DAF904E000F0EBF901E000F018FA002002BD38B5044629
:206080000D464FF4FE702218107803280DD1287902280ADA2046926992689047E8880028B8
:2060A00006D1204600F062FA02E0204600F0FCF9002032BD70B504460D462979287800F027
:2060C0006000202809D1294620464FF4FE722244926992689047002070BD687800284AD015
:2060E000012825D0032873D14FF4FE7026183078022802D0032808D066E0002968D080292D
:2061000066D02046FFF70AFF62E06888002806D1002904D0802902D02046FFF7FFFE294673
:206120002046B26992689047204600F01FFA4FE04FF4FE7026183078022802D0032808D0D9
:2061400042E0002944D0802942D02046FFF7E6FE3EE0688800283BD111F07F0007D02046E6
:20616000FFF7EBFE29462046B26992689047204600F0FCF92CE094F8FC01022802D0032878
:2061800007D021E011F07F0022D02046FFF7C6FE1EE001F07F0004EB00100A46120602D5E9
:2061A00000F1140502E04FF4827285182046FFF7D3FE401E8041C043C00F286002222946E6
:2061C000204600F0A4F903E02946204600F06CF9002070BD38B504460D4669880846000A9F
:2061E000401E062800F27D80DFE800F0041F317B7B636E006946207CD4F8102212689047B8
:20620000BDF8001000290FD0E9880A000CD0BDF800208A4200D90A46ADF80020BDF80020F6
:206220000146204600F073F931BD4FF4047020444168207C0028684604D1896A8847022177
:206240004170DDE7C96A884702214170D8E7C9B2052946D8DFE801F0030A11181F2669468B
:20626000207CD4F8102252689047C9E76946207CD4F8102292689047C2E76946207CD4F869
:206280001022D2689047BBE76946207CD4F8102212699047B4E76946207CD4F810225269DF
:2062A0009047ADE76946207CD4F8102292699047A6E7207C002814D168464FF40471214457
:2062C0004968496B88479BE7207C002809D168464FF4047121444968096B884707214170D2
:2062E0008EE72946204600F0DFF831BD70B50446888800281BD1C888002818D1887800F0BB
:206300007F054FF4FE702618307803280FD0B57029462046FFF72EFE204600F027F9002D99
:2063200002D00220307070BD0120307070BD2046BDE87040B8E070B504460D46224E688839
:206340003070317802293ADA94F8FC01022802D0032810D033E0080008D06160032084F8D2
:20636000FC012046FEF746F8022823D02046BDE8704000F0FBB808000DD1022084F8FC018B
:206380000020606001462046FEF741F82046BDE8704000F0EBB860688142E7D00146C9B2F0
:2063A0002046FEF734F8317861602046FEF722F80228DBD129462046BDE8704074E02946B4
:2063C0002046BDE870406FE09E2A0020CA88012A11D190F8FC21022A02D0032A07D00AE0DB
:2063E00000218160012200F1080100F090B80122011D00F08CB857E04FF4FE720244137816
:206400009B1E012B0BD80121C1609168002901D00321C160022200F10C0100F078B843E0D4
:2064200010B50446488801280DD14FF4017022180120106020461269926890472046BDE83A
:20644000104000F093B810BD10B504464FF4FE7022181078801E01280DD8488801280ED1DE
:206460000020906020469269926890472046BDE8104000F07BB82046BDE8104014E010BD40
:206480000A7802704A7842708A78CB7802EB032242800A794B7902EB032282808A79C979DB
:2064A00002EB0121C180704710B504468021FFF735FD00212046BDE81040FFF72FBD70B57A
:2064C00004460D461646002C16D000F016F84000801C30803088287003206870022008E0D2
:2064E00014F8011BC0B22954401C0021C0B22954401C21780029F3D170BD002101E0491CA3
:20650000401C0278002AFAD10846C0B2704780B50223C0F8F43100F118031A605A60134669
:206520000A460021FFF735FD002002BD80B513460A460021FFF72DFD002002BD80B503238A
:20654000C0F8F4314FF4847303441A605A6013460A460021FFF72CFD002002BD80B5134653
:206560000A460021FFF724FD002002BD80B50421C0F8F41100231A461146FFF70AFD0020A6
:2065800002BD80B50521C0F8F41100231A461146FFF70EFD002002BD0EB4002003B070471E
:2065A000B0F8401041F43F41A0F8401000207047B0F8401044F2FF221140A0F840100020C7
:2065C0007047002070470EB400B500F1400101220A8000220A808A800A82FFF7E1FF00209F
:2065E0005DF810FBF0B4CA78032A2CD8DFE802F002210D160A7830F8223048F68F142340E5
:2066000043F4007320F822301DE00A7830F8223048F68F14234020F8223014E00A7830F821
:20662000223048F68F14234043F4C06320F8223009E00A7830F8223048F68F14234043F4A0
:20664000806320F822300C78254648F2800248F68F7330F825601E403443144320F82540AC
:2066600004460E788D7A002D67D18D886D086D004F78002FB0F8507020D017EBC60604EBDC
:20668000460404F5806425600C7830F824506D0608D530F824502B4043F4004343F0C00367
:2066A00020F82430097830F8213048F6BF74234083F020031A4320F82120D0E017EBC606D6
:2066C00004EB460606F581663560B0F850500E7805EBC60504EB450404F20C440D693F2D1F
:2066E0000AD36E0915F01F0F00D1761EB50245F40045ADB2256006E06E08ED0700D5761CDE
:20670000B502ADB225600C7830F824506D0408D530F824502B4043F4404343F0800320F8E1
:206720002430097830F821304BF68F74234083F440531A4320F8212091E030F826501D4038
:2067400045F4014545F0800520F82650B0F850500E7805EBC60504EB450505F58065CE887B
:20676000760876002E60B0F850500E7805EBC60504EB450404F581640D896D086D002560FB
:206780000C784D78002D30F8245033D16D0408D530F824501D4045F4404545F0800520F80C
:2067A00024500C7848F2C00530F82460760605D530F824601E402E4320F824600C7830F81D
:2067C000246033402B4320F824300B7830F823404BF68F752C4084F44054144320F823404B
:2067E000097830F8213048F6BF7423401A4320F8212034E06D0408D530F824501D4045F481
:20680000404545F0800520F824500C7830F824506D0608D530F824501D4045F4004545F091
:20682000C00520F824500C7830F824502B4043F4404343F0800320F824300B7830F8234092
:2068400048F6BF752C40144320F82340097830F821304BF68F7423401A4320F82120002011
:20686000F0BC704730B40A784C788B7A002B37D1002C30F8223019D05B060AD530F822300A
:2068800048F68F74234043F4004343F0C00320F82230097830F8212048F6BF731A4042F490
:2068A000004242F0800220F821208AE05B040AD530F8223048F68F74234043F4404343F0D6
:2068C000800320F82230097830F821204BF68F731A4042F4004242F0800220F8212070E06F
:2068E00048F68F73002C30F8224033D1640408D530F822401C4044F4404444F0800420F8E7
:2069000022400A7848F2C00430F822506D0605D530F822501D40254320F822500A7830F81B
