:020000040800F2
:2000000008100020C90E00082DE9F8430446DFF83C542078C00747D5686800F00C00042854
:2000200007D0686800F00C0008280AD16868C00307D52868800337D56068002834D101206E
:2000400049E16068B0F5803F09D008B928680AE0B0F5A02F286806D140F48020286028686F
:2000600040F4803005E020F480302860286820F480202860606858B100F006FA0746286801
:20008000800311D400F000FAC01B6528F7D31FE100F0FAF907462868800305D500F0F4F9E2
:2000A000C01B6528F7D313E12078DFF8AC63800718D5686810F00C0F07D0686800F00C009A
:2000C000082825D16868C00322D42868800702D520690128B3D12868616920F0F80040EAC1
:2000E000C1002860207800073ED5A169DFF86C03002965D00121016000F0C6F90746686A06
:20010000800722D400F0C0F9C01B0328F7D3DFE0206968B10120306000F0B6F9074628685B
:200120008007D8D400F0B0F9C01B0328F7D3CFE0306000F0A9F9074628688007D2D500F057
:20014000A3F9C01B0328F7D3C2E0DFF808030068C0084FF47A71B0FBF1F0009000BF0098DE
:20016000411E00280091F9D1207840076FD5E869C0004FF000080AD4E86940F08050E861AA
:200180004FF00108E86900F0805000900098DFF8D092D9F80000C0051FD4D9F8000040F417
:2001A0008070C9F8000000F06FF90746D9F80000C00512D400F068F9C01B6528F6D387E084
:2001C000016000F061F90746686A8007CCD500F05BF9C01B0328F7D37AE0E068012808D076
:2001E00008B9286A09E00528286A06D140F004002862286A40F0010005E0400840002862B5
:20020000286A20F00400286241F28939E06858B100F03AF90746286A800711D400F034F9DD
:20022000C01B4845F7D353E000F02EF90746286A800705D500F028F9C01B4845F7D347E098
:20024000B8F1000F03D0E86920F08050E861E06900283FD0696801F00C0108293FF4EFAE49
:2002600002282AD100F039F807462868800105D500F00AF9C01B0328F7D329E0206AB0F505
:20028000803F05D16868A16820F40030084368606868216A20F474100843616A084368607D
:2002A000012000F01BF807462868800112D400F0EBF8C01B0328F7D30AE000F00EF8074606
:2002C0002868800106D500F0DFF8C01B0328F7D3032000E00020BDE8F2830020306600F0B8
:2002E000D3B82DE9F8435F4E04463068884600F00700404502D200F076F852D12078534FBA
:20030000800705D57868A16820F0F000084378602078C0073DD56068012802D1396889030E
:2003200003E00228396802D1890102D439E0890737D57968890840EA8100786041F289393D
:2003400000F0A2F80546606801280AD1786800F00C0004281DD000F097F8401B4845F5D3D8
:2003600015E002280AD1786800F00C00082810D000F08AF8401B4845F5D308E0786810F0AD
:200380000C0F06D000F080F8401B4845F6D3032027E0306800F00700804504D200F023F8F4
:2003A00001D001201DE02078400705D57868E16820F4E060084378602078000706D578689B
:2003C000216920F4605040EAC100786000F015F87A682549C2F30312895CC8401D4908603A
:2003E0000020BDE8F2833068C00848EAC0003060306800F007004045704700B585B001A883
:200400000FF27001102200F055F80FF278000088ADF800001548016801F00C02082A12D17B
:2004200001AAC1F38343C903D25C09D500680849C0F340401DF80000B1FBF0F0504303E0BC
:200440000B48504300E0024805B000BD0010024000127A0000000020000042428004424290
:200460000070004000200240BC0D00080410024000093D0002030405060708090A0B0C0DA3
:200480000E0F10100102000001480068704700BF4014002062B38B0708D0521E11F8013B4D
:2004A00000F8013B00F024808B07F6D1830740F0208000BF103A07D330B4B1E83810103ACF
:2004C000A0E83810F9D230BC530724BFB1E80810A0E8081044BF51F8043B40F8043BD2072C
:2004E00024BF31F8022B20F8022B44BF0B7803707047083A07D3B1E80810083A40F8043B48
:2005000040F804CBF7D25307E4E700002DE9F047DFF854730446387E01260128884608BF16
:20052000022039D03E764CF250392068DFF83C53022848460DD100F005FA50BB012000F086
:20054000BAF800F009F90646286820F0040028601FE000F0F7F9E0B94FF0FF30C8F80000D9
:20056000D4F808A001E00AF5806AE068A16801EB802082450DD2504600F066F900F0ECF801
:200580000646286820F0020028603000EBD0C8F800A0002038763046BDE8F08770B500F025
:2005A0004CF900F044F9010008D100F008F800F02EF903D1E0B2BDE8704015E170BDAA4917
:2005C000AA4E0020C861306840F020003060306840F040003060284600F0B4B92DE9F041B8
:2005E000A14C217E05460120012908BF022043D020762978C9070AD56968A868012902D119
:2006000000F066F801E000F0AAF8010032D12978890704D5287C00F0E7F801002AD12978FB
:20062000924E49074CF2503812D56F7C00F026F801000BD10020E0618D4900F0F3F847F0BE
:200640008800088000F01AF800F0E7F8010011D1297809070ED52F7E6D6900F00FF80100C7
:2006600008D10020E06100F0DDF82F8000F006F800F0D3F800212176BDE8F081404600F0DF
:2006800061B938B50446072020607A4D6868A06000F0D3F820742868C0F38200607431BDF5
:2006A0007449754A9042086802D1C0F387207047C0F3874070476C490020C8616B4801684D
:2006C00041F004010160016841F04001016070472DE9F047654C216921EA000000F033F8E2
:2006E00001002ED100F07CF801002AD100F071F806D038882840388000F02EF8010008D19B
:20070000B8F1FF0F07D0788808EA0000788000F023F8010008D1BAF1FF0F07D0B8880AEAB8
:200720000000B88000F018F8010006D1FF2E04D0F8883040F88000F00FF8216821F010019E
:200740002160BDE8F08700F0FF05C0F30728C0F3074A060E4CF25039484600F0F3B82DE908
:20076000F047424C21690843FFF7EDFF01002ED100F036F801002AD100F02BF806D038883A
:2007800028433880FFF7E8FF010008D1B8F1FF0F07D0788848EA00007880FFF7DDFF0100F4
:2007A00008D1BAF1FF0F07D0B8884AEA0000B880FFF7D2FF010006D1FF2E04D0F888304391
:2007C000F880FFF7C9FF216821F010012160BDE8F087216841F01001FF2D2160274F7047F6
:2007E00021490020C861D9E670B500F020F801000CD1FFF7E4FE00F00AF807D100F012F8E0
:200800001F480480FFF7E7FE00F007F870BD316821F02001316001007047316821F0100127
:2008200031607047306840F010003060704704464CF25035284600F085B80E490968A5201C
:20084000890748BF00207047074A0021D16107490A6842F002020A604860086840F040009C
:200860000860704700000000081400201020024002F8FF1F1C20024004F8FF1F08F8FF1FDD
:2008800000F8FF1F2DE9F84F534C0646207E0128894692469B4608BF022027D00120207614
:2008A0004CF25038404600F04DF801001CD1012E1CBF022E04260027484D00E07F1CB74235
:2008C00012DA504659463A0100F094F881B209EB470000F02DF8404600F034F82968490839
:2008E000490029600100E9D000212176BDE8F28F3C48C168090600D506E0012070473748C0
:20090000016841F0800102E037490160374901600020704736488168890500D4F4E701207C
:2009200070472E48016821F40071F0E700F072B8294B0022DA61294A136843F00103136041
:200940000180704770B50546FFF79EFD0646244C2068C0070AD515F1010FF9D025B1FFF7C9
:2009600093FD801B8542F3D2032070BD2068800644BF202020602068C00605D42069C00728
:2009800002D42068400703D500F004F8012070BD002070BD124910480B680022DB0604D551
:2009A000C26942F00202C26110220B685B0705D5C36943F00103C36142F004020B69DB07BD
:2009C00007D5C36943F00403C36108694008400008610A6070470000081400201020024080
:2009E0000C2002400420024023016745AB89EFCD08200240D2B2203A22BF21FA02F000210C
:200A000070472032D141D04048409140D140484070470000BFF34F8F0548064A016801F477
:200A2000E06111430160BFF34F8F00BFFDE700000CED00E00400FA0510B588B004466846BC
:200A4000FFF71FFE00988DF8184040F00800009049480590FFF74CFFFFF75CFFFFF79EFDFD
:200A60006846FFF7BBFDFFF75CFFFFF748FF012080F31388FFF75AFF08B010BD70B53E48DE
:200A80003E4CFFF70DFEC0B2082821D154F8042D3B493C488A4201D08442F7D2844217D3D6
:200AA0004DCC394D4DC5103D884211D1B3F5E84F0BD89A083549364800F083F8E9688842A6
:200AC00001D1012070BD092000E00A20FFF7B4FF002070BD2DE9F04F85B0FFF7CFFF2D4C06
:200AE00030B9216881F308882B490C6060688047FFF7FEFE294DDFF8A880DFF88CB040F265
:200B000015162E600020019003941D2004906946012002904FF0000901A8FFF7F7FCFFF7D1
:200B2000EEFE1EE009F100614FF4806201F504414046FFF7AFFCFFF7DBFE04EB090A2E608A
:200B4000002738F8172000230AEB47010120FFF799FE7F1CB7F5007FF3D3FFF7D0FE09F5AB
:200B60008069DBF808008145DCD30B20FFF764FF05B0BDE8F08F000004F8FF1F00F80008C5
:200B80005AA55AA5018400082814002000840008381400200010000808ED00E00C2002401B
:200BA0000810002010B5040001D1012010BD607918B92071204600F032F8012060710020A7
:200BC00010BD30B504790023012C01D1022030BD01240471022444710468A56845F001058C
:200BE000A56003E051F8235025605B1C04689342F8D30121417100210171206830BD00006D
:200C000080B50F480F490160FFF7CCFF30B1BDE8044038210FF2340000F06BB801BD81B074
:200C200000680849884209D10748016841F040010160006800F040000090009801B07047A4
:200C4000381400200030024014100240473A5C6C6561726E5C62617272795F636F64655C8F
:200C600073746D33325C626F6F746C6F616465725F73746D33326631303343385C53726323
:200C80005C6372632E63000080B500F033F800F007F800F03BF8FFF7B3FFFFF71BFFFCE732
:200CA00000B58FB001200590002107914FF48030069001210D9009914FF4E01002210E90FB
:200CC0000C9105A8FFF7A0F900B1FEE70F200090022102200190002002904FF480600390A8
:200CE000002004906846FFF7FCFA00B1FEE70FB000BDFEE780B50448016841F01001016022
:200D000000F01CF8002002BD002002400A4881B0016841F020010160016801F020010091E3
:200D20000099016841F004010160006800F004000090009801B07047181002400A4881B041
:200D4000016841F001010160006800F00100009000980648016821F0E0610160016841F011
:200D60000071016001B0704718100240040001400E480F4A016841F00101016041681140E4
:200D800041600C4A016811400160016821F480210160416821F4FE0141604FF41F0181601F
:200DA0004FF000600449086070470000001002400000FFF8FFFFF6FE08ED00E00000000018
:200DC00000000000010203040607080919E050F8041BCB0744BFA9F101035918121F002353
:200DE000042A41F8043BF9D25FEA827C0B4604D54FF0000CA1F800C09B1CD10744BF0021BA
:200E0000197050F8042B002AE1D1704710B450F8041B79B10268436802440830DC0744BF71
:200E2000A9F10104E31852F8044B43F8044B091FF9D1ECE710BC704710B507497944183192
:200E4000064C7C44163404E00A68081D114488470146A142F8D110BD0800000028000000A7
:200E60006DFFFFFF3C04000008100020000000009DFFFFFF040000006C0000000000002066
:200E80000000000000F00BF8002801D0FFF7D4FF0020AFF30080FFF7F7FE00F002F8012065
:200EA000704700F001B800000746384600F002F8FBE7000080B5AFF30080024A110018204F
:200EC000ABBEFBE7260002000148804701480047710D0008D90E0008AFF30080AFF3008046
:200EE000FFF7D0FF00A24A04FFFFFFFFFFFFFFFFFFFFFFFFFFFFFFFFFFFFFFFFFFFFFFFF55
:200F0000FFFFFFFFFFFFFFFFFFFFFFFFFFFFFFFFFFFFFFFFFFFFFFFFFFFFFFFFFFFFFFFFF1
:200F2000FFFFFFFFFFFFFFFFFFFFFFFFFFFFFFFFFFFFFFFFFFFFFFFFFFFFFFFFFFFFFFFFD1
:200F4000FFFFFFFFFFFFFFFFFFFFFFFFFFFFFFFFFFFFFFFFFFFFFFFFFFFFFFFFFFFFFFFFB1
:200F6000FFFFFFFFFFFFFFFFFFFFFFFFFFFFFFFFFFFFFFFFFFFFFFFFFFFFFFFFFFFFFFFF91
:200F8000FFFFFFFFFFFFFFFFFFFFFFFFFFFFFFFFFFFFFFFFFFFFFFFFFFFFFFFFFFFFFFFF71
:200FA000FFFFFFFFFFFFFFFFFFFFFFFFFFFFFFFFFFFFFFFFFFFFFFFFFFFFFFFFFFFFFFFF51
:200FC000FFFFFFFFFFFFFFFFFFFFFFFFFFFFFFFFFFFFFFFFFFFFFFFFFFFFFFFFFFFFFFFF31
:200FE000FFFFFFFFFFFFFFFFFFFFFFFFFFFFFFFFFFFFFFFFFFFFFFFFFFFFFFFFFFFFFFFF11
:2010000060110020AD6F00084D6D00084F6D0008516D0008536D0008556D0008000000003D
:20102000000000000000000000000000576D0008596D0008000000005B6D00085D6D000874
:20104000D56F0008D56F0008D56F0008D56F0008D56F0008D56F0008D56F0008D56F000830
:20106000D56F0008D56F0008D56F0008D56F0008D56F0008D56F0008D56F0008D56F000810
:20108000D56F0008D56F0008D56F0008D56F0008716D0008D56F0008D56F0008D56F000856
:2010A000D56F0008D56F0008D56F0008D56F0008D56F0008D56F00087B6D0008D56F00082C
:2010C000D56F0008D56F0008D56F0008D56F0008D56F0008D56F0008D56F0008D56F0008B0
:2010E000D56F0008D56F0008D56F000810B50400002C01D1012014E094F83D00002805D169
:20110000002084F83C00200000F019FE022084F83D00211D206800F030FB012084F83D003A
:20112000002010BD10B50400002C01D1012014E094F83D00002805D1002084F83C00200027
:2011400000F010FE022084F83D00211D206800F014FB012084F83D00002010BD10B5040061
:201160000122206800F0C7FC2068DFF8AC11884205D12068406C50F40040216848642068E0
:20118000006850F0010021680860002010BD10B504000022206800F0AEFC2068DFF87811D3
:2011A000884211D12068006A41F2111108420BD12068006A40F24441084205D12068406C19
:2011C00030F40040216848642068006A41F2111108420BD12068006A40F24441084205D140
:2011E000206800684008400021680860012084F83D00002010BD10B50400002C01D10120D7
:2012000014E094F83D00002805D1002084F83C00200000F0CBFD022084F83D00211D2068C2
:2012200000F0ABFA012084F83D00002010BD10B504000800002806D004280BD0082810D06C
:201240000C2815D01BE02068C06850F002002268D06014E02068C06850F004002268D0602C
:201260000DE02068C06850F008002268D06006E02068C06850F010002268D060FFE7012226
:20128000206800F038FC2068006850F0010021680860002010BD10B504000800002806D0C4
:2012A00004280BD0082810D00C2815D01BE02068C06830F002002268D06014E02068C068D3
:2012C00030F004002268D0600DE02068C06830F008002268D06006E02068C06830F01000EB
:2012E0002268D060FFE70022206800F004FC2068006A41F2111108420BD12068006A40F223
:201300004441084205D1206800684008400021680860002010BD0000002C014010B504009C
:201320002068006980071AD52068C068800716D57FF0020021680861012020772068806998
:2013400010F0030F03D0200000F09CFD05E0200000F03CFE200000F039FE0020207720684A
:20136000006940071AD52068C068400716D57FF0040021680861022020772068806910F459
:20138000407F03D0200000F07DFD05E0200000F01DFE200000F01AFE002020772068006951
:2013A00000071AD52068C068000716D57FF0080021680861042020772068C06910F0030FAE
:2013C00003D0200000F05EFD05E0200000F0FEFD200000F0FBFD0020207720680069C00669
:2013E0001AD52068C068C00616D57FF0100021680861082020772068C06910F4407F03D026
:20140000200000F03FFD05E0200000F0DFFD200000F0DCFD0020207720680069C0070AD578
:201420002068C068C00706D57FF0010021680861200000F0A8FD2068006900060AD52068E5
:20144000C068000606D57FF0800021680861200000F0BCFD2068006940060AD52068C06813
:20146000400606D57FF0400021680861200000F0ADFD2068006980060AD52068C068800664
:2014800006D57FF0200021680861200000F09EFD10BD38B504000D0094F83C00012801D1B7
:2014A00002205FE0012084F83C00022084F83D00002A12D1EB686A682968206800F04FFA93
:2014C0002068806930F00C002168886120688069A9680843216888613DE0042A13D1EB683C
:2014E0006A682968206800F085FA2068806930F440602168886120688069A96850EA01200E
:201500002168886127E0082A12D1EB686A682968206800F0A1FA2068C06930F00C0021680E
:20152000C8612068C069A96808432168C86112E0EB686A682968206800F0AAFA2068C0694E
:2015400030F440602168C8612068C069A96850EA01202168C861012084F83D00002084F8D0
:201560003C00002032BD38B504000D0094F83C00012801D1022073E0012084F83C000220EF
:2015800084F83D00002A06D0042A1BD0082A31D00C2A46D05DE02900206800F021F920687A
:2015A000806950F00800216888612068806930F004002168886120688069296908432168AA
:2015C000886146E02900206800F03AF92068806950F40060216888612068806930F480602C
:2015E0002168886120688069296950EA0120216888612EE02900206800F057F92068C069F9
:2016000050F008002168C8612068C06930F004002168C8612068C069296908432168C86109
:2016200017E02900206800F074F92068C06950F400602168C8612068C06930F48060216860
:20164000C8612068C069296950EA01202168C861FFE7012084F83D00002084F83C00002059
:2016600032BD10B50400002094F83C00012801D1022081E0012084F83C00022084F83D0098
:201680002068806830F0770030F47F40226890600868002855D0102858D020285BD03028FE
:2016A0005ED0402843D050282DD0602835D070280DD0B0F5805F03D0B0F5005F16D054E095
:2016C00020688068C008C000216888604DE0CB684A688968206800F002FA2068806830F09A
:2016E000770050F07700216888603EE0CB684A688968206800F0F3F92068806850F480407F
:201700002168886031E0CA684968206800F05EF95021206800F0D9F927E0CA684968206868
:2017200000F085F96021206800F0CFF91DE0CA684968206800F04AF94021206800F0C5F948
:2017400013E00021206800F0C0F90EE01021206800F0BBF909E02021206800F0B6F904E0C4
:201760003021206800F0B1F9FFE7012084F83D00002084F83C00002010BD00220268904B0A
:20178000984208D0B0F1804F05D08E4B984202D08D4B984203D132F070024B681A43884BD0
:2017A000984208D0B0F1804F05D0864B984202D0854B984203D132F44072CB681A4332F0AD
:2017C00080024B691A4302608A68C2620A6882627B4A904201D109690163012141617047EE
:2017E00030B4002200230024026A520852000262036A4468826932F07002920892000D68E7
:201800002A4333F002038D682B436D4DA84205D133F00803CD682B4333F00403684DA842BC
:2018200007D134F4807434F400744D692C438D692C434460826149684163036230BC7047AA
:2018400030B4002200230024026A32F010020262036A4468826932F4E04232F440720D689E
:2018600052EA052233F020038D6853EA0513544DA84206D133F08003CD6853EA051333F0C0
:2018800040034F4DA84209D134F4806434F400644D6954EA85048D6954EA8504446082614C
:2018A00049688163036230BC704730B4002200230024026A32F480720262036A4468C26912
:2018C00032F07002920892000D682A4333F400738D6853EA05233A4DA84206D133F40063A0
:2018E000CD6853EA052333F48063354DA84209D134F4805434F400544D6954EA05148D6983
:2019000054EA05144460C2614968C163036230BC704730B4002200230024026A32F480521B
:201920000262036A4468C26932F4E04232F440720D6852EA052233F400538D6853EA053323
:201940001F4DA84204D134F480444D6954EA85144460C26149680164036230BC704770B4DA
:2019600000240025046A6408640004628469056A134EB04208D0B0F1804F05D0114EB0425D
:2019800002D0114EB04201D1012600E00026F6B2002E03D0A408A400144301E054F00104AB
:2019A00034F0F0041A0112F0F002144335F00A0511F00A010D438461056270BC70470000EA
:2019C000002C0140000400400008004010B400230024046A036A5B085B000362836933F0F6
:2019E000F00353EA021334F00A040C438361046210BC704730B400240025046A34F0100481
:201A000004628469056A34F4407454EA022434F470441A0312F47042144335F0A0050901E8
:201A200011F0A0010D438461056230BC704710B400230024036A33F0100303628369046A58
:201A400033F4704353EA023334F0A00454EA01148361046210BC704730B400240025046AB7
:201A600034F480740462C469056AA408A400144334F0F0041A0112F0F002144335F4206575
:201A8000090211F420610D43C461056230BC704730B400240025046A34F480540462C4690C
:201AA000056A34F4407454EA022434F470441A0312F47042144335F40055090311F400518F
:201AC0000D43C461056230BC70470022826832F0700289B251F007010A438260704710B4B9
:201AE0000024846834F47F44114351EA03210C43846010BC704710B4002301238B40046A3E
:201B000034EA03030362036A12FA01F11943016210BC704700B587B0DFF82003DFF820139F
:201B200008600020DFF8181348600020DFF8101388604FF4E150DFF80813C8600020DFF8EC
:201B4000001308610020DFF8F81248610020DFF8F0128861DFF8E802FFF7C8FA002804D008
:201B60004F21DFF8E00200F0ABFA4FF48050029002A9DFF8CC02FFF774FD002804D05521D9
:201B8000DFF8C00200F09CFA00200090002001906946AB4800F096FA002803D05C21A9483A
:201BA00000F08EFA07B000BD00B589B05FF08040A549086044F61F60A34948600020A2498E
:201BC0008860C820A049C86000209F49086100209D4988619C48FFF7A5FA002803D06E21C1
:201BE000984800F06DFA00200090002001906946954800F067FA002803D07521914800F016
:201C00005FFA60200290642003900020049000200690042202A98C48FFF7A5FC002803D0A1
:201C20007E21884800F04CFA874800F0E5F809B000BD00B589B0854885490860002084490F
:201C400048600020824988604FF4E1608049C86000207F49086100207D4988617C48FFF7BA
:201C600061FA002803D09221764800F029FA00200090002001906946754800F023FA002888
:201C800003D099216F4800F01BFA602002904FF4167003900020049000200690002202A956
:201CA0006B48FFF760FC002803D0A221654800F007FA674800F0A0F809B000BD00B587B02A
:201CC00064486549086041F61F406349486000206149886064206049C86000205E49086121
:201CE00000205D4988615C48FFF785FA002803D0B621544800F0E4F9002000900020019080
:201D00006946554800F0DEF9002803D0BD214D4800F0D6F902200290012003900020049067
:201D200000200590002202A94B48FFF7B2FB002803D0C621434800F0C3F907B000BD81B02D
:201D400000683E4988420BD14448006850F40060424908604148006810F4006000900098E6
:201D600001B0704781B00168B1F1804F0CD13C48006850F001003A4908603948006810F012
:201D80000100009000980FE00068304988420BD13348006850F002003149086030480068BD
:201DA00010F002000090009801B0704700B585B00068284988421DD12948006850F00400F9
:201DC000274908602648006810F004000090009840200190002002900020039001A92148C0
:201DE00000F09EF9002200211E2000F015FB1E2000F023FB05B000BD00B585B00168B1F128
:201E0000804F0AD10220009002200190022003906946154800F084F90DE000680B49884212
:201E200009D140200090022001900220039069460D4800F075F905B000BD0000002C01402F
:201E4000A4240020806E0008E4240020000400402425002000080040642500201810024074
:201E60001C100240000C01400008014080B500215248FFF7DCF901BD80B500214F48FFF702
:201E80000AFA01BD80B5007F01287BD14C480078FF2877D04B480078002803D002284FD08E
:201EA00029D36FE000F0FEFA01204649087000204349087041480068006A4FF6F571084055
:201EC0003E49096808623D480068006A3B49096808627FF00100394909680861002037497E
:201EE0000968486235480068C06850F0010033490968C86046E00220324908702F4800684A
:201F0000406B31492E4A127888542D480078401C2B49087029480068006A4FF6F571084053
:201F200026490968086225480068006A50F00200224909680862002020490968486221E0EB
:201F40000120204908701D480068406B1E491C4A127888541A480078401C19490870174865
:201F60000068006A4FF6F571084014490968086212480068006A11490968086200200F498B
:201F80000968486201BD80B50C480068C068400840000A490968C860094800780B2808DBFC
:201FA000FFF76AFF06480178074800F03DFE00F07EFC00200349087001BD000064250020CC
:201FC0002126002022260020241F00207047010280B538483849086000F088FE00F017F802
:201FE00000F098FE00F0D4FEFFF794FDFFF7DCFDFFF71FFEFFF762FE00F0F4FE00F086FB87
:020000040800F2
:2020000000F0AFFB00F071FD00F0B6FFF8E700B593B0012009905FF480300A905FF4003072
:202020000B9001200D90022010905FF4803011905FF4E010129009A800F0C6FF002803D09B
:202040009D211E4800F03CF80F20049002200590002006904FF48060079000200890022173
:2020600004A801F0DAF9002803D0AB21134800F027F81020009000200390684601F0F8FABB
:20208000002803D0B2210D4800F01AF801F0B8FA4FF47A71B0FBF1F000F0D8F9042000F0E9
:2020A000D9F9002202215FF0FF3000F0B5F913B000BD00000010000808ED00E04C6E0008BE
:2020C000FEE7000090F83C20012A01D1022024E0012280F83C20022280F83D200268526800
:2020E00032F0700203685A60026852680B681A4303685A600268926832F0800203689A60A1
:20210000026892684968114302689160012180F83D10002180F83C10002070470000000058
:20212000F8B400250024002500220026002307E0DFF8B8512D6835EA04046C4D2C605B1CDB
:20214000102B80F0C680012414FA03F50C682C40AC42F4D14E68002E27D0012E1AD0022EAC
:202160001DD0032E2FD0112E16D0122E1AD0604FBE421AD05F4FBE4217D05F4FBE4214D033
:202180005E4FBE4211D05E4FBE420ED05D4FBE420BD01AE0CA6818E0CA68121D15E0CA68F3
:2021A000083212E0CA680C320FE08A68002A01D1042207E08A68012A02D10822056101E038
:2021C0000822456101E00022FFE7FF2C01D8050000E0051DFF2C01D89E0002E0B3F1080605
:2021E000B6002F685FF00F0C1CFA06FC37EA0C0712FA06F63E432E604D68ED009FD5424D20
:202200002D6855F00105404E35603F4D2D6815F001050095009D3D4D9E0855F826500F2635
:2022200013F00307FFB2BF00BE40B543384EB04201D100260FE0374EB04201D101260AE072
:20224000354EB04201D1022605E0344EB04201D1032600E0042613F00307FFB2BF00BE4036
:2022600035432A4E9F0846F827504D68ED0305D52B4D2D6825432A4E356004E0284D2D6823
:20228000A543274E35604D68AD0305D5254D2D682543244E356004E0224D2D68A543214E58
:2022A00035604D68ED0205D51F4D2D6825431E4E356004E01C4D2D68A5431B4E35604D6824
:2022C000AD027FF535AF094D2D682C43074D2C6035E7F1BC7047D2B2002A02D089B2016120
:2022E00002E089B209040161704700000C04014000001110000012100000211000002210A4
:202300000000311000003210181002400800014000080140000C014000100140001401404B
:2023200000040140040401400804014010F00701504800684FF6FF0210404F4A52EA01212D
:2023400008434C49086070474A480068C0F302207047012110F01F029140484A40B2400917
:2023600042F82010704740B2002808D50901444A40B210F00F00104400F8041C03E0090153
:20238000404A40B21154704710B410F00700D0F10703052B01D3042301E0D0F10703041D17
:2023A000072C01D2002000E0C01E012414FA03F35B1E19408140012313FA00F0401E1040AE
:2023C000084310BC7047BFF34F8F2A48006810F4E0602D49084327490860BFF34F8F00BF99
:2023E000FDE780B5411EB1F1807F01D301200EE0401E264908600F215FF0FF30FFF7B3FF56
:20240000002023490860072022490860002002BD80B5FFF78BFF01BD70B504000D00160030
:202420000020FFF791FF32002900FFF7ADFF0100200040B2FFF797FF70BD80B540B2FFF710
:2024400088FF01BD80B5FFF7BEFF01BD80B5FFF7C8FF02BD042806D10E48006850F00400DB
:202460000C49086005E00B48006830F004000949086070470CED00E00000FA0500E100E0D1
:2024800018ED00E000E400E00400FA0514E000E018E000E010E000E080B500F001F801BD38
:2024A0007047000080B5DFF828040078002808D10421DFF82004FEF751FE0120DFF8101434
:2024C00008704FF41670DFF81014086001BD80B50421DFF80004FEF75AFE01BDDFF8FC1374
:2024E000B1FBF0F1DFF8F8231268D162DFF8EC13B1FBF0F0DFF8E813C860DFF8E403C0686E
:202500000321B0FBF1F0DFF8D81309684863704780B50021DFF8C803FEF720FE01BD80B578
:202520000021DFF8BC03FEF732FE01BD38B504000D00FFF7EDFF2000C0B201F057F9FFF758
:20254000EEFF2800C0B201F051F931BD38B504000D00FFF7E4FF2000C0B201F047F9FFF73B
:20256000D7FF2800C0B201F041F9FFF7D8FF31BD80B5C9B2C0B2FFF7D9FF01BD2DE9F84FFA
:202580000700884691469A465FF0000B0A9C0B9D0C9E07E04946C9B24046C0B2FFF7C6FFB9
:2025A0001BF1010B58463100C0B2C9B2884217D2FFB2002F04D0012010FA0BF0284005E06D
:2025C0000120711EB1EB0B0188402840C0B20028E0D02100C9B25046C0B2FFF7A7FFDFE723
:2025E000BDE8F18F2DE9F84305000E00170098465FF00009089C07E03900C9B23800C0B21C
:20260000FFF794FF19F1010948462100C0B2C9B288422DD2EDB2002D05D0012010FA09F0F3
:2026200010EA080006E00120611EB1EB0901884010EA0800C0B2002810D0F6B2002E06D07C
:202640003900C9B23800C0B2FFF770FFDAE73900C9B23800C0B2FFF779FFD3E7F6B2002E9A
:20266000CAD03900C9B23800C0B2FFF76FFFC9E7BDE8F1839B480068002804D099480068A5
:20268000401E9849086098480088002804D096480088401E944908808F480068002804D0CB
:2026A0008D480068401E8C490860704710B5040001208E490870FFF7F5FE94F82000002895
:2026C00008D002280ED009D3042813D00ED3052814D017E0200001F0F2F813E0200001F047
:2026E00001F90FE0200001F047F90BE0200001F093F907E0200001F0E3F903E0200001F050
:2027000015FBFFE700207949087010BD80B500F00FFC01BD80B576480078002805D11FE046
:2027200073484078401C7249487071484078142813DA70486E49497828225143084490F8DB
:2027400021000128ECD16B48694949782822514301446748407800F0FEF900206449087096
:2027600001BD80B5FFF7D6FF59480078002808D059480068002804D1002055490870FFF750
:20278000A6FE5948008800284DD15B4890F8210001280AD15848FFF789FF0020564981F880
:2027A00021002D20504908803DE04E480068002839D152480078002829D0514800780028D1
:2027C00025D050480078002821D14A484E49097828225143084490F82100012817D14A48BA
:2027E000007800F04DFA434847490978282251430844FFF75BFF3F484349097828225143A2
:202800000844406A374908602D20374908803E480078401C3C4908703B480078142802DB1A
:2028200000203949087001BD80B501003248282201F0B0FA0120304981F8210001BD80B504
:20284000002009E000212B4AC0B2282303FB00F31A4482F82110401CC0B21428F2DB00F05B
:202860009DFB01BD10B5C0B214280BDA2822214BC0B22824604303EB0004200001F07AFA1C
:2028800000F08CFB10BD012019490870002018494870704716484078142807DA0120144958
:2028A000087013484078401C114948707047012013490870704700201149087070470020F3
:2028C0000E490870704701200C490870704700001C260020E42400200C26002000A24A0401
:2028E0002425002008260020182600201B26002010260020C0150020A825002058010020B1
:20290000590100201A2600201D26002030B400230379012B01D1022018E001230371022322
:20292000437103689B6853F001030468A360002303E0CC5C05682C605B1C92B29342F8D33D
:2029400001214171002101710068006830BC704780B50A0092B20100DFF87003FFF7D6FF04
:202960000100020A030C000E514059404840C0B202BD70B50C0005002978552918D1E4B276
:20298000D349D44A127801EB020622000100300001F0F0F9CF4800782018CE490870CD48E7
:2029A00000786978491C884202DB0120CA49087070BD80B5C9B289B201F04FFA01BD80B5C1
:2029C000C9B2042901D1FFF765FF01BD10B50400617889B22000FFF7BBFFC0490870BF4830
:2029E00000786178615C884215D1E078022813D1201DFFF719FFE07805280CD0E078012886
:202A000009D0E078002806D0E078072803D0E178A07800F0EBF810BDE078032802D1FFF7D0
:202A20000EFFE8E7E078042807D12279601D01001000C0B2FFF716FFDDE7E078052802D19C
:202A4000FFF721FFD7E7E0780C2802D1FFF737FFD1E7E0780D2802D1FFF735FFCBE7E078CB
:202A60000F2804D1FFF727FFFFF700FAC3E7E0780E2804D1FFF700FAFFF719FFBBE7E07839
:202A8000012804D12179A078FFF799FFB3E7E078072803D1A07800F039F8ACE7E0780928AE
:202AA00008D101F025FA0028A5D1E178A07800F07FF8B0E7E0780A280BD13422A11DA0887E
:202AC00001F022FA002896D1E178A07800F070F8A1E7E0780B288ED101F025FA00288AD08D
:202AE000E178A07800F064F895E780B57A48007800280AD0774801787548FFF767FF0020BB
:202B00007549087000207349087001BD10B5C0B06C465521217004216170A0700820E07001
:202B200012202071092060711720A0712020E0716078001D6070617889B26846FFF708FF7B
:202B40006946627888546078411CC9B26846FFF730FF40B010BD30B5C1B06C4655222270BF
:202B6000042262705E4A1278A2705D4A1278521C5B4B1A700422E27020716078401C60703D
:202B80002822651D280001F0F5F8607828306070617889B26846FFF7DBFE6946627888546D
:202BA0006078411CC9B26846FFF703FF41B030BD10B5C0B06C465522227004226270A070E9
:202BC0000020E07021716078401C6070617889B26846FFF7BDFE6946627888546078411CE2
:202BE000C9B26846FFF7E5FE40B010BD10B5C0B06C465522227004226270A0700120E070AD
:202C000021716078401C6070617889B26846FFF79FFE6946627888546078411CC9B2684606
:202C2000FFF7C7FE40B010BD70B50D002D4C55212170042161702C490978A1702A49097879
:202C4000491C294A11700621E1702571EDB2661D2A000100300001F08DF86078691C08189D
:202C60006070617889B21F48FFF772FE1D49627888546078411CC9B21A48FFF79AFE70BDBA
:202C800010B5C0B06C46552121700421617016490978A17014490978491C134A117010210D
:202CA000E17020716078401C6070617889B26846FFF74EFE6946627888546078411CC9B215
:202CC0006846FFF776FE40B010BD0000002600202420002023260020242600202526002037
:202CE00026260020242100202726002080B50848006850F01000064908600320FFF788FB06
:202D0000022001F043F901F055F9002002BD00000020024000B585B01B48006850F02000CF
:202D2000194908601848006810F02000009000981548006850F0040013490860124800682A
:202D400010F00400009000980F48006850F008000D4908600C48006810F008000090009896
:202D600001224FF480610948FFF7B5FA4FF480600190012002900220049001A90348FFF70E
:202D8000CFF905B000BD00BF18100240000C014080B51048104908600F4801F057F9002875
:202DA00003D042210D48FFF78BF901BD81B00068084988420BD10A48006850F04000084935
:202DC00008600748006810F040000090009801B0704700000030024000260020186E0008BE
:202DE0001410024080B500220749084801F062F90749064801F076F90649044801F0E6FBBF
:202E0000024801F07AF901BD24010020E0180020100000201401002070B586B005000C0018
:202E2000012601F07DFC40F2151060490860002000900295A00A039003984FF480614843CB
:202E4000A04202D20398401C03900120019004A9684601F017FD060001F070FC3000C0B21B
:202E600006B070BD2DE9F04104000D0016005FF0010801F055FC40F215104C4908600027EC
:202E800000E07F1CBFB2B7EB560F0FD2BFB235F817200023BFB214EB4701012001F0E6FBBB
:202EA00080465FFA88F8B8F1000FEAD001F046FC4046C0B2BDE8F08180B53D483D49026816
:202EC00012F1010F0FD00A6812F1010F0BD14FF480613748FFF7A0FF4FF44872364935486E
:202EE000FFF7C0FF23E0006810F1010F0FD1086810F1010F0BD04FF480612E48FFF78CFF4A
:202F00004FF448722C492A48FFF7ACFF0FE04FF480612748FFF780FF4FF480612548FFF7AE
:202F20007BFF4FF4487224492148FFF79BFF01BD10B51F481F49026812F1010F0AD10A6898
:202F400012F1010F06D04FF448721B4C200000F011FF06E04FF44872174C0100200000F0AD
:202F600009FF10BD15480068002804D013480068401E12490860704780B5114800780028F2
:202F80000BD00E480068002807D1FFF795FF00200B49087000200B49087001BD0120084906
:202FA00008704FF4FA700549086070470C20024000F8000800FC0008C0150020A42500202F
:202FC0001A2600201D26002070B582B0040000252078C00740F18480DFF85006006810F085
:202FE0000C0004280BD0DFF84406006810F00C0008280ED1DFF834060068C00309D5DFF829
:203000003006006880036BD56068002868D1012002E26068B0F5803F08D1DFF814060068C3
:2030200050F48030DFF80816086038E06068002810D1DFF8FC05006830F48030DFF8F01566
:203040000860DFF8EC05006830F48020DFF8E015086024E06068B0F5A02F10D1DFF8D00513
:20306000006850F48020DFF8C8150860DFF8C005006850F48030DFF8B81508600FE0DFF81E
:20308000B005006830F48030DFF8A4150860DFF8A005006830F48020DFF8941508606068EF
:2030A00000280ED001F096FE0500DFF884050068800315D401F08EFE401B6528F5D30320FC
:2030C000AAE101F087FE0500DFF864050068800306D501F07FFE401B6528F5D303209BE127
:2030E0002078800726D5DFF84405006810F00C0F0BD0DFF83805006810F00C00082833D17C
:20310000DFF828050068C0032ED4DFF824050068800704D52069012801D001207CE1DFF8DE
:203120001005006830F0F800616950EAC100DFF800150860207800074ED5A069002800F0FE
:2031400081800120DFF8F414086001F043FE0500DFF8EC04006880073BD401F03BFE401B85
:203160000328F5D3032057E1206900281ED00120DFF8D014086001F02DFE0500DFF8B00472
:203180000068800706D401F025FE401B0328F5D3032041E1DFF89804006830F0F800616902
:2031A00050EAC100DFF888140860C3E70020DFF89414086001F00EFE0500DFF874040068CF
:2031C0008007B7D501F006FE401B0328F5D3032022E1012000F017FA2078400740F1B98008
:2031E0000026DFF864040068C0000FD4DFF85804006850F08050DFF850140860DFF84804EE
:20320000006810F08050009000980126DFF83C040068C00529D4DFF83404006850F480703B
:20322000DFF82814086001F0D5FD0500DFF81C040068C00519D401F0CDFD401B6528F5D3CF
:203240000320E9E00020DFF8F413086001F0C2FD0500DFF8EC0300688007BDD501F0BAFD78
:20326000401B0328F5D30320D6E0E068012808D1DFF8DC03006850F00100DFF8D413086058
:2032800037E0E068002810D1DFF8C403006840084000DFF8BC130860DFF8B403006830F014
:2032A0000400DFF8AC13086023E0E068052810D1DFF89C03006850F00400DFF894130860AB
:2032C000DFF88C03006850F00100DFF8841308600FE0DFF87C03006840084000DFF870137A
:2032E0000860DFF86C03006830F00400DFF860130860E068002810D001F06CFD0500DFF85C
:2033000050030068800719D401F064FD401B41F289318842F3D303207EE001F05BFD050085
:20332000DFF82C030068800708D501F053FD401B41F289318842F3D303206DE0F6B2012E5B
:2033400007D1DFF80403006830F08050DFF8F8120860E06900285ED0DFF8D002006810F066
:203360000C00082855D0E06902283FD10020DFF8E412086001F02EFD0500DFF8B4020068FE
:20338000800106D501F026FD401B0328F5D3032042E0206AB0F5803F09D1DFF89002006891
:2033A00030F40030A1680843DFF880120860DFF87C02006830F47410216A0843616A084343
:2033C000DFF8681208600120DFF88812086001F001FD0500DFF85802006880011BD401F04C
:2033E000F9FC401B0328F5D3032015E00020DFF86412086001F0EEFC0500DFF83402006848
:20340000800108D501F0E6FC401B0328F5D3032002E0012000E0002076BD70B504000D009E
:203420000026DFF83402006810F00700A84211D2DFF824020068C008C0002843DFF81812C4
:203440000860DFF81402006810F00700A84201D00120A1E02078800709D5DFF8D00100683E
:2034600030F0F000A1680843DFF8C01108602078C00756D56068012806D1DFF8B401006892
:20348000800311D4012087E06068022806D1DFF8A0010068800107D401207DE064480068A5
:2034A000800701D4012077E06048006880088000616808435D49086001F08CFC06006068B7
:2034C00001280ED15948006810F00C00042828D001F080FC801B41F289318842F2D3032004
:2034E0005AE0606802280ED15048006810F00C00082816D001F06EFC801B41F289318842F2
:20350000F2D3032048E04948006810F00C0F08D001F060FC801B41F289318842F3D3032027
:203520003AE04D48006810F0070085420ED24A480068C008C00028434749086046480068EB
:2035400010F00700A84201D0012025E02078400707D53648006830F4E060E168084333496E
:2035600008602078000708D53048006830F46050216950EAC1002D49086000F00EF83749DA
:203580002A4A1268C2F30312895CC8402A490860022000F0FBFC002070BD00B585B001A8C2
:2035A0002F49102200F0F6FB2E480088ADF80000002000200020002100201C48006810F070
:2035C0000C01042902D0082902D016E0264815E001A9C0F38342895CC0030AD56846134ACF
:2035E0001268C2F34042805C1F4AB2FBF0F0484302E01E4800FB01F000E00E4805B000BDE1
:203600000D480068704781B00B490968C9084FF47A72B1FBF2F14843009000BF0098411EE0
:2036200000910028F9D101B070470000041002400010024000127A00000000208004424243
:2036400024100240000042421C100240007000402010024060004242002002407C6F0008A7
:203660006C6F0008CE1F00080024F40000093D0070B582B00400002600202078C00763D5DC
:2036800000253D480068C0000CD43B48006850F08050394908603848006810F0805000904B
:2036A0000098012535480068C00513D43348006850F480703149086001F08CFB06002F48CD
:2036C0000068C00506D401F085FB801B6528F6D3032050E02A48006810F44070002822D086
:2036E000616811F4407188421DD02548006830F440700121234A11600021224A1160204984
:203700000860C0070FD501F065FB06001C480068800708D401F05EFB801B41F28931884274
:20372000F4D3032027E01648006830F440706168084313490860EDB2012D05D10E480068C5
:2037400030F080500C4908602078800707D50E48006830F44040A16808430B4908602078B7
:20376000C00607D50848006830F48000E168084305490860002076BD1C1002400070004090
:2037800020100240400442420410024000201649096848627FF001001349096808611248FF
:2037A0000068006850F001000F49096808600E4800680069C007FAD50B480068006A41F2B2
:2037C000111108420ED108480068006A40F24441084207D1044800680068400840000249B4
:2037E0000968086070470000A424002038B50400002502E0FFF7CAFF6D1C28002100C0B256
:20380000C9B28842F6D331BD80B50A20FFF7EEFF01BD38B50400002502E0FFF7F5FF6D1C41
:20382000A542FAD331BD3EB50400A07800283BD0142506211820FEF79BFE07200290E0786D
:203840000190062000900C23062206210120FEF795FE0520029020780190062000900C2335
:20386000062206210120FEF789FEEDB20F2D0BDB0320029060780190062000900C23062270
:2038800006210120FEF77AFEEDB2142D0BDB05200290A0780190062000900C230622062119
:2038A0000120FEF76BFE37BD6078002801D00F25BFE72078002801D00C25BAE7F3E738B5C0
:2038C000040049F64040FEF709FE002506E02000FFF7A9FF0A20FFF79CFF6D1CEDB2032D4D
:2038E000F5DB31BD10B584B0040049F27040FEF7F5FD2D212078FEF73BFE08200290607895
:203900000190112000900623062206210120FEF735FE08200290A078019011200090062347
:20392000062206210120FEF729FE08200290E0780190112000900623062206210120FEF709
:203940001DFE08200290E078C043C0B20190112000900623062206210120FEF70FFE0120B7
:20396000029000200190112000900623062206210120FEF703FE1FBD10B582B0040048F69F
:20398000A040FEF7ABFD09211B20FEF7F1FD012000900123052201210020FEF723FE0320EB
:2039A0000090207810F00703052201210020FEF719FE18480078002808D0012000900123B3
:2039C000092201210020FEF70DFE07E0012000900023092201210020FEF704FE0D4800788E
:2039E000002803D101200B49087002E0002009490870082000906378052201210020FEF721
:203A0000F1FD08200090A378052201210020FEF7E9FD13BD2026002010B582B0040048F632
:203A2000A040FEF75BFD012000900123092200210020FEF7D7FD01200090607810F03F0087
:203A400050F04003DBB2092200210020FEF7CAFD1A480078002808D0012000900123092254
:203A600000210020FEF7BEFD07E0012000900023092200210020FEF7B5FD1048007800288F
:203A800003D101200D49087002E000200B49087005200090207810F01F03092200210020BA
:203AA000FEF7A0FD06200090607810F03F03092200210020FEF796FD13BD00BF1F260020BC
:203AC00010B584B0040049F27040FEF707FD2A215420FEF74DFD08200290207801901020F4
:203AE00000900523052205210120FEF747FD0820029060780190102000900523052205210F
:203B00000120FEF73BFD0120029000200190102000900523052205210120FEF72FFD1FBDA0
:203B20002DE9F04D88B0804600240025002601E0641C761CF6B2032E05DAF6B208EB060079
:203B4000407BFF28F4D1E4B2022C2ED100200021CDE9020101208DF8000001208DF80400B1
:203B600001200021CDE9040101208DF8010001208DF8050000207D49087098F80B007C4938
:203B80007A4A1278885479480078401C7749087098F80C007649754A12788854734800787B
:203BA000401C72490870002624E0E4B2032C1ED100200021CDE9020101208DF800000120D7
:203BC0008DF8040001200021CDE9040102208DF8010003208DF8050003200021CDE9060109
:203BE00002208DF8020003208DF80600C2E7002099E0761C300098F80A10C0B288423ED274
:203C0000EDB2102D3BDA002700E07F1C38002100C0B2C9B288422BD2D8E9002301A8FFB2C6
:203C2000C05D002102400B4002A8FFB200EBC70CDCE900018B42E8D18242E6D1FFB208EB35
:203C40000700407B4A49494A1278885447480078401C46490870D8E900016A46FFB2D25D5A
:203C600001F0BEF8C8E900016846FFB2C05D45192000FFB2C0B28742BBD1002053E0B8F876
:203C800008000021D8E900ABD5F1400201F0B8F85AEA00005BEA0101C8E9000100E0761C37
:203CA000300098F80A10C0B288423BD2002700E07F1C38002100C0B2C9B288422BD2D8E971
:203CC000002301A8FFB2C05D002102400B4002A8FFB200EBC70CDCE900018B42E8D1824273
:203CE000E6D1FFB208EB0700407B21491F4A127888541E480078401C1C490870D8E9000195
:203D00006A46FFB2D25D01F06BF8C8E900016846FFB2C05D45192000FFB2C0B28742BED198
:203D2000002000E0012008B0BDE8F08D10B5FFF7F7FE002818D049F27040FEF7CFFB0024FA
:203D400007E0FEF7E5FB0A48E4B2005DFFF74EFD641C200005490978C0B2884204D2E007B9
:203D6000EFD5FEF7DCFBEEE710BD00001E2600202424002062B38B0708D0521E11F8013B11
:203D800000F8013B00F024808B07F6D1830740F0208000BF103A07D330B4B1E83810103AB6
:203DA000A0E83810F9D230BC530724BFB1E80810A0E8081044BF51F8043B40F8043BD20713
:203DC00024BF31F8022B20F8022B44BF0B7803707047083A07D3B1E80810083A40F8043B2F
:203DE00040F804CBF7D25307E4E7000080B5002229492A4800F0F3FB2949284800F0F8FBF0
:203E0000002002BD00207047C0B2002810D001280FD002280ED003280DD004280CD020280A
:203E20000BD021280AD0222809D0232808D008E007E006E005E004E003E002E001E000E03A
:203E4000FFE70020704780B50968C9B2FEF791FD124800F0EFFB002002BD38B503000C00F2
:203E600000200E48D0F81802D0F81402002801D0012010E0A4B2084D220019002800FFF7FE
:203E800079FF220092B20449044800F0A8FB034800F0B4FBC0B232BD24230020E01800204E
:203EA0002422002010B588B00400684600F0D2FD009850F0080000902D4805908DF81840D7
:203EC00000F02EFC00F042FC00F036FD684600F069FD00F049FC00F031FC012080F31388F2
:203EE0005FF000602349086000F046FC08B010BD80B54FF4E8412048FEF78EFF002801D004
:203F0000002000E0012002BD10B5D2B280B23423194C03FB0040FEF7A5FF002801D000209A
:203F200000E0012010BD10B514491348091F0A68134B9A4201D08842F8D3884201D300203E
:203F400015E010220F4C2000FFF714FF0D488068820809490C4800F08BF80A49C968884288
:203F600001D0002003E00820FFF79CFF012010BD04F8FF1F08ED00E00084000800F800084B
:203F80005AA55AA5F02500200026002010B50400074800684FF47A71B0FBF1F0FEF756FA29
:203FA000002221005FF0FF30FEF736FA002010BD0000002080B52348006850F0010021495B
:203FC00008602048006810F00100009000980320FEF71EFA002200217FF00B00FEF71CFA88
:203FE000002200217FF00A00FEF716FA002200217FF00900FEF710FA002200217FF0040090
:020000040800F2
:20400000FEF70AFA002200217FF00300FEF704FA002200217FF00100FEF7FEF9002202211B
:204020005FF0FF30FEF7F8F90748006830F0E060054908600448006850F000700249086038
:2040400001BD00BF181002400400014010B50400002C01D101200AE06079002804D100206C
:2040600020712000FEF7A2FE01206071002010BD30B400230379012B01D1022018E001235C
:2040800003710223437103689B6853F001030468A360002304E051F8234005682C605B1C8C
:2040A0009342F8D301214171002101710068006830BC704780B5002801D1022011E0D0F87C
:2040C0001432002B02D00023C0F81432002901D0C0F81012012180F8FC11027000F026FF7A
:2040E000002002BD0022002903D0C0F81412002200E002221000C0B2704780B500F070FFF2
:20410000002002BD0020704710B50224D0F81422002A07D0C9B2D0F814221268904700280D
:2041200000D100242000C0B210BD80B5C9B2D0F8142252689047002002BD10B504004FF401
:204140000270204401F010FB0120C4F8F401B4F80E02C4F8F80194F8080210F01F00C0B223
:20416000002803D0022811D008D317E04FF4027004EB0001200001F053F816E04FF40270BB
:2041800004EB0001200001F077F80EE04FF4027004EB0001200001F095F806E094F8080202
:2041A00010F08001200000F077FF002010BD10B5040008001100C0B200282CD14FF482705D
:2041C0002044D4F8F421032A35D1C26883689A420FD28268C368D21A82608268C3689A42C1
:2041E00001D2826800E0C26892B2200001F033FB21E0D4F814020069002808D094F8FC01A0
:20420000032804D12000D4F8141209698847200001F02AFB0FE0D4F81412896900290AD03F
:2042200094F8FC11032906D10100C9B22000D4F8142292699047002010BD10B504001000AC
:20424000C9B2002956D114F11401D4F8F421022A45D1CA688B689A4210D28A68CB68D21A62
:204260008A608A6892B20100200001F0D9FA002300220021200000F09AFF30E04868CA6838
:20428000B0FBF2F302FB1300002817D14868CA68904213D34868D4F8F81188420ED2002283
:2042A0000021200001F0BCFA0020C4F8F801002300220021200000F07AFF10E0D4F8140280
:2042C000C068002808D094F8FC01032804D12000D4F81412C9688847200001F0D0FA94F8B4
:2042E0000002012815D12000FFF70CFF002084F800020EE0D4F814024069002809D094F8E8
:20430000FC01032805D1C9B22000D4F8142252699047002010BD10B5040040230022002114
:20432000200000F079FE4020C4F81001402300228021200000F070FE40202062012084F8A6
:20434000FC01D4F81802002806D06168C9B22000D4F8142252689047002010BD0174002003
:20436000704790F8FC1180F8FD11042180F8FC110020704790F8FD1180F8FC1100207047F8
:2043800080B590F8FC11032908D1D0F81412C969002903D0D0F81412C9698847002002BD64
:2043A00070B505000024287C00280ED14FF4007302228121280000F02FFE4FF40073022269
:2043C0000121280000F028FE0BE0402302228121280000F021FE402302220121280000F071
:2043E0001BFE082303228221280000F015FE4FF4077000F002FFC5F81802D5F818020028F5
:2044000001D101241EE0D5F81862D5F81C02006880470020C6F814020020C6F81802287CB6
:20442000002808D14FF40073D6F804220121280000F0BDFE06E04023D6F804220121280055
:2044400000F0B5FE2000C0B270BD38B5040000258121200000F003FE0121200000F0FFFD03
:204460008221200000F0FBFDD4F8180200280AD0D4F81C0240688047D4F8180200F0CEFEAE
:204480000020C4F818022800C0B232BD70B504000D00D4F81862287810F06000C0B2002887
:2044A00028D0202832D1E88800281BD0287800060CD5EA8831006878D4F81C329B68984730
:2044C000EA883100200001F09BF912E0687886F80002E88886F80102EA883100200001F09D
:2044E000A8F906E0002229006878D4F81C329B6898470BE068780A2802D00B2806D005E051
:2045000001222D49200001F07BF9FFE7002070BDD0F81812D0F81802002804D00020C1F8A1
:204520001402002000E00220704738B50400D4F81852C9B2200000F059FEC5F80C02D4F8EC
:20454000180200280BD04FF4037005EB0001D5F80402D4F81C22D2689047002000E0022087
:2045600032BD10B50300D3F81842D3F81C02002810D094F80002FF280CD094F8012292B2EA
:20458000210094F80002D3F81C329B689847FF2084F80002002010BD4321018007487047FC
:2045A000432101800648704743210180054870470A21018004487047282600208C0000205F
:2045C00048000020D0000020040000200222002902D0C0F81C1200221000C0B27047D0F837
:2045E0001802C0F8081292B2C0F8102200207047D0F81802C0F804120020704780B5D0F846
:204600001812D0F81822002A12D0D1F81422002A0CD10122C1F81422D1F810329BB2D1F829
:204620000822812100F0A4FD002002E0012000E0022002BD80B5D0F81812D0F81822002AE6
:2046400012D0027C002A07D14FF40073D1F80422012100F0ACFD05E04023D1F8042201213F
:2046600000F0A5FD002000E0022002BD2DE9F84381460E0014001D0001205FF000080027D1
:20468000DFF8E001007E012801D1022046E00120DFF8D01108764CF2503000F07CF8C0B2B6
:2046A000002836D1B9F1010F01D1012705E0B9F1020F01D1022700E004275FF0000801E039
:2046C00018F1010841463A00C9B2D2B2914220D2200029005FFA88F85FEA081200F080FB53
:2046E00002000B00110089B25FFA88F816EB480000F046F84CF2503000F04DF8DFF86811CE
:20470000096849084900DFF860211160C0B20028D6D00021DFF84C211176C0B2BDE8F2830D
:2047200051480068000607D5514852490860524850490860002000E0012070474A4800688D
:2047400050F08000484908600020704746480068800507D446484949086047484749086064
:20476000002000E0012070473F48006830F400703D4908600020704780B5FDF763FE01BDD1
:204780000022384BDA61384A126852F00102364B1A600180704738B5040000F01BFB0500C9
:2047A00032480068C0070BD514F1010FF8D0002C04D000F00FFB401B8442F1D2032017E09B
:2047C0002A480068800602D520202849086027480068C00607D42A480068C00703D423482E
:2047E0000068400703D500F004F8012000E0002032BD00201D490968C90607D51949C96900
:2048000051F00201174AD16150F0100017490968490707D51349C96951F00101114AD16116
:2048200050F0040016490968C9070BD50D49C96951F004010B4AD1611149096849084900FA
:204840000F4A116040F20111884206D10C480068400840000A49086001E00449086070475D
:2048600000000000D0250020102002400C2002402301674504200240AB89EFCD08200240B3
:204880001C200240F8B504000D0001260027DFF81805007E012801D102204CE00120DFF8DB
:2048A000081508762068022816D14CF25030FFF772FF002839D1012000F0DAF84CF25030CC
:2048C000FFF769FF0600DFF8E404006830F00400DFF8D814086028E04CF25030FFF75BFFE8
:2048E000002822D15FF0FF302860A76801E017F58067E0684FF48061A26801FB0020874259
:2049000013D2380000F03DFA4CF25030FFF743FF0600DFF89804006830F00200DFF88C14E3
:204920000860F6B2002EE2D02F600020DFF8781408763000C0B2F2BD10B5A524012000F007
:204940000EFA04004CF25030FFF725FFC0B2002826D10020DFF85014C861DFF850040068CB
:2049600050F02000DFF844140860DFF84004006850F04000DFF8341408604CF25030FFF702
:204980000AFFDFF82814096831F02001DFF81C241160C0B2002803D12000C0B200F05BF97C
:2049A000C0B210BD10B504000120DFF8FC13097E012901D102204CE00121DFF8EC23117688
:2049C0002178C90712D56068012803D1A06800F060F802E0A06800F0CDF8C0B2002805D064
:2049E0000021DFF8C4231176C0B232E0217889070BD5207C00F02FF9C0B2002805D0002180
:204A0000DFF8A4231176C0B223E0217849070BD5607C00F05BF9C0B2002805D00021DFF8AC
:204A200088231176C0B214E0217809070CD5217E606900F06FF9C0B2002805D00021DFF82D
:204A400068231176C0B204E00021DFF85C231176C0B210BD10B504000720206000F07CF9DC
:204A6000A06000F07CF9207400F085F9607410BD0020DFF83413C861CC48006850F0040007
:204A8000CA490860C948006850F04000C749086070472DE9F041804600204FF6FF744FF649
:204AA000FF754FF6FF764FF6FF7700F055F930EA080818F0FF04C8F307255FEA184000F022
:204AC000FF065FEA18674CF25030FFF764FEC0B200284CD10020B449C861FFF72DFFC0B262
:204AE000002844D1B149096851F01001AF4A1160A4B2FF2C08D0AF4800882040AD4908809C
:204B00004CF25030FFF747FEC0B200280BD1ADB2FF2D08D0A84800882840A74908804CF22D
:204B20005030FFF738FEC0B200280BD1B6B2FF2E08D0A24800883040A04908804CF25030D5
:204B4000FFF729FEC0B200280BD1BFB2FF2F08D09B48008838409A4908804CF25030FFF749
:204B60001AFE9249096831F01001904A1160C0B2BDE8F0812DE9F041804600204FF6FF74E7
:204B80004FF6FF754FF6FF764FF6FF7700F0E4F850EA080818F0FF04C8F307255FEA18403E
:204BA00000F0FF065FEA18674CF25030FFF7F3FDC0B200284CD100207B49C861FFF7BCFE20
:204BC000C0B2002844D17949096851F01001774A1160A4B2FF2C08D07648008820437549AF
:204BE00008804CF25030FFF7D6FDC0B200280BD1ADB2FF2D08D07048008828436E490880E3
:204C00004CF25030FFF7C7FDC0B200280BD1B6B2FF2E08D0694800883043684908804CF216
:204C20005030FFF7B8FDC0B200280BD1BFB2FF2F08D0634800883843614908804CF25030BE
:204C4000FFF7A9FD5949096831F01001574A1160C0B2BDE8F08110B5040000204CF2503032
:204C6000FFF799FDC0B200282ED100204E49C8614E48006850F020004C4908604B480068D9
:204C800050F04000494908604CF25030FFF783FD4649096831F02001444A1160C0B200288B
:204CA00012D14248006850F0100040490860E4B2444804804CF25030FFF76DFD3B49096825
:204CC00031F01001394A1160C0B210BD10B5040000204CF25030FFF75EFDC0B2002817D1F5
:204CE00000203149C8613148006850F010002F490860E4B254F08800334908804CF25030BC
:204D0000FFF749FD2949096831F01001274A1160C0B210BD38B504000D0001204CF2503044
:204D2000FFF739FDC0B2002814D100201E49C8611E48006850F010001C490860EDB22580E9
:204D40004CF25030FFF727FD1849096831F01001164A1160C0B232BD1C4800687047A520FD
:204D600000201348006810F00200022801D1002000E0A52070470E480068C0F38200C0B271
:204D800070470021084AD1610849096851F00201064A11600E4908600448006850F04000FD
:204DA0000249086070470000D0250020102002401C20024008F8FF1F0AF8FF1F0CF8FF1F24
:204DC0000EF8FF1F00F8FF1F02F8FF1F202002401420024001480068704700BF1426002008
:204DE000D2B2203A22BF21FA02F0002170472032D141D04048409140D140484070470000F2
:204E0000D2B2203A22BF00FA02F1002070475242D041D2F1200291404140D04090404140D2
:204E20007047000080B501224FF48061DFF8D003FDF751FA4FF4FA7000F02CFD00224FF42B
:204E40008061DFF8BC03FDF746FA01BD80B50068DFF8B013884218D1FFF7E4FFDFF8A803A4
:204E6000006850F40000DFF8A0130860DFF89803006810F400000090009800220021142017
:204E8000FDF7CAFA1420FDF7D8FA01BD80B500F22C41D0F85C04FFF750F901BD80B5C9B239
:204EA0004A010244D2F83C22C9B2D0F85C04FFF77EF901BD80B5C9B24A010244D26BC9B272
:204EC000D0F85C04FFF7B9F901BD80B5D0F85C04FFF756FA01BD10B504000121A0680228C6
:204EE00001D1012100E00121C9B2D4F85C04FFF735FAD4F85C04FFF70EFA10BD10B5040030
:204F0000D4F85C04FFF72DFAA069002807D0DFF8FC02006850F00600DFF8F012086010BDAF
:204F200080B5D0F85C04FFF725FA01BD10B50400DFF8DC02C0F85C44DFF8D402C4F82002E0
:204F4000DFF8C002DFF8C81208600820DFF8C01248600220DFF8B81288600020DFF8B012C2
:204F6000C8600020DFF8A81288610020DFF8A012C8610020DFF898120862DFF8940200F035
:204F800098FC002805D04FF49971DFF88802FDF797F8182300220021D4F8200201F0FFF8FB
:204FA000582300228021D4F8200201F0F8F8C02300228121D4F8200201F0F1F84FF4887337
:204FC00000220121D4F8200201F0E9F84FF4807300228221D4F8200201F0E1F8002010BD2D
:204FE00080B5010000200020D1F8200200F0E4FCC0B2002805D0022807D004D3032806D038
:2050000007E0002006E0022004E0012002E0022000E00220C0B202BD10B51C00002300231E
:205020001300DBB2220092B2C9B2D0F8200200F097FD0300DBB2002B05D0022B07D004D316
:20504000032B06D007E0002306E0022304E0012302E0022300E002231800C0B210BD80B597
:20506000020000200020C9B2D2F8200200F0AAFDC0B2002805D0022807D004D3032806D0A8
:2050800007E0002006E0022004E0012002E0022000E00220C0B202BD80B50200002000204E
:2050A000C9B2D2F8200200F004FEC0B2002805D0022807D004D3032806D007E0002006E062
:2050C000022004E0012002E0022000E00220C0B202BD80B5020000200020C9B2D2F8200294
:2050E00000F01DFEC0B2002805D0022807D004D3032806D007E0002006E0022004E0012049
:2051000002E0022000E00220C0B202BDD0F82002C9B20A0607D5C9B211F07F014901084475
:2051200090F82A0006E0C9B211F07F014901084490F82A02704780B5020000200020C9B2E8
:20514000D2F8200200F0F6FCC0B2002805D0022807D004D3032806D007E0002006E002202A
:2051600004E0012002E0022000E00220C0B202BD10B5002400249BB2C9B2D0F8200200F044
:2051800079FD0400E4B2002C05D0022C07D004D3032C06D007E0002406E0022404E00124FD
:2051A00002E0022400E002242000C0B210BD10B5002400249BB2C9B2D0F8200200F02FFDA7
:2051C0000400E4B2002C05D0022C07D004D3032C06D007E0002406E0022404E0012402E051
:2051E000022400E002242000C0B210BD80B5C9B2D0F8200200F035FD02BD074870470000A3
:20520000000C0140005C00401C10024010ED00E060110020DC6D0008041B002070477047CB
:2052200010B500244A78002A18D0012A1CD0032A17D0052A09D0062A04D0082A0BD0092A3A
:2052400006D014E000F0EDF813E000F090F910E000F0B9F90DE000F025FA0AE000F040FAA1
:2052600007E000F056FA04E000F064FA01E000F08FFA2000C0B210BD70B504000D000026C0
:2052800094F8FC01032817D1287902280FDA29002000D4F8142292689047E88800280AD12F
:2052A000F6B2002E07D1200000F0DEFA03E02900200000F06DFA03E02900200000F068FA57
:2052C000002070BD70B505000E000024B188307810F06000202807D131002800D5F8142268
:2052E0009268904700209BE0707800285DD0012830D0032840F0928095F8FC01022802D0E9
:2053000003280BD021E0C9B2002906D0C9B2802903D0C9B22800FFF7BFFE1AE070880028A5
:2053200009D1C9B2002906D0C9B2802903D0C9B22800FFF7B1FE31002800D5F81422926884
:205340009047280000F090FA03E03100280000F01FFA63E095F8FC01022802D003280BD0C0
:205360001EE0C9B2002906D0C9B2802903D0C9B22800FFF791FE17E0708800280FD17F2000
:20538000014209D0C9B22800FFF7A3FE31002800D5F8142292689047280000F065FA03E030
:2053A0003100280000F0F4F938E095F8FC01022802D0032808D02CE07F20014203D0C9B2DA
:2053C0002800FFF769FE28E0C9B2080607D5C9B211F07F000001284410F1140608E0C9B2F5
:2053E00011F07F00000128444FF4827200EB0206C9B22800FFF78AFE002802D001203060CA
:2054000001E00020306002223100280000F0F8F903E03100280000F0BBF9FFE72000C0B245
:2054200070BD38B504000D00688880B2000AC0B2012808D002281FD0032830D0062869D0F7
:20544000072875D084E06946207CD4F8102212689047BDF80010002900F08880E98800295A
:2054600000F08480BDF80010EA88914275D2BDF80010ADF8001073E0207C002807D16846D0
:20548000D4F81412896A88470221417006E06846D4F81412C96A884702214170D9E7A87848
:2054A000002808D0022814D00CD304281FD017D3052823D029E06946207CD4F810225268CE
:2054C0009047C6E76946207CD4F8102292689047F7E76946207CD4F81022D2689047F0E71F
:2054E0006946207CD4F8102212699047E9E76946207CD4F8102252699047E2E76946207C52
:20550000D4F8102292699047DBE72900200000F03FF92BE0207C002805D16846D4F8141243
:20552000496B884795E72900200000F031F91DE0207C002807D16846D4F81412096B88478D
:205540000721417085E72900200000F021F90DE02900200000F01CF908E0E988ADF800106A
:20556000BDF800200100200000F04AF931BD38B504008888002822D1C88800281FD1887890
:2055800010F07F0594F8FC01032803D1200000F0FFF817E084F8FE512900C9B22000FFF77C
:2055A000CAFD200000F060F9EDB2002D03D0022084F8FC0106E0012084F8FC0102E02000FF
:2055C00000F0E6F831BD38B504000D0068883449087033480078022804DB2900200000F0F7
:2055E000D7F85CE094F8FC01022802D003281ED051E02B480078002815D029480078606030
:20560000032084F8FC01264801782000FEF77CFD022804D12900200000F0BAF83FE0200050
:2056200000F022F902E0200000F01EF937E01C48007800280ED1022084F8FC0118480078E9
:205640006060174801782000FEF76FFD200000F00BF91FE0124800786168884217D0616809
:20566000C9B22000FEF761FD0D48007860600C4801782000FEF748FD022804D12900200040
:2056800000F086F80BE0200000F0EEF802E0200000F0EAF803E02900200000F079F831BD6C
:2056A0002926002080B5CA88012A02D000F070F815E090F8FC21022A02D0032A08D00CE016
:2056C00000218160012210F1080100F099F806E00122011D00F094F801E000F059F801BD97
:2056E00080B590F8FC21921E012A0FD80121C160D0F80412002903D0C16851F00201C16063
:20570000022210F10C0100F07BF801E000F040F801BD10B50400488801280AD10120C4F8B3
:2057200004022000D4F8142292689047200000F09BF810BD10B5040094F8FC01801E0128E7
:205740000ED8488801280AD10020C4F804022000D4F8142292689047200000F085F802E04B
:20576000200000F015F810BD0A7802704A7842708A78CB7812EB032242800A794B7912EB6A
:20578000032282808A79C97912EB0121C180704710B5040080212000FFF77EFC002120004B
:2057A000FFF77AFC10BDF8B504000D0017000026002C1AD0200000F019F84000801C3880EA
:2057C0003888F6B2A855761C0320F6B2A855761C08E02078F6B2A855641C761C0020F6B279
:2057E000A855761C20780028F3D1F1BD002101E0491C401C0278002AFAD10800C0B2704785
:2058000080B50223C0F8F43192B2826192B2C26113009BB20A000021FFF7AAFC002002BDBD
:2058200080B513009BB20A000021FFF7A1FC002002BD80B50323C0F8F43192B2C0F80821D9
:2058400092B2C0F80C2113009BB20A000021FFF7AEFC002002BD80B513009BB20A00002155
:20586000FFF7A5FC002002BD80B50421C0F8F411002300220021FFF77BFC002002BD80B5B4
:205880000521C0F8F411002300220021FFF78FFC002002BD31B5FFF79DFA0400009D15F145
:2058A000010F00D06D1CFFF795FA001BA842FAD331BD10B586B004000020002C01D10120FC
:2058C00078E094F82904002805D1002084F828042000FFF7BBFA032084F82904206800F0E2
:2058E0008FFC211D83B068462022FEF753FA0EBC206800F077FC0021206800F08CFC002084
:205900001DE001214201224482F829104101214481F8280041012144888600214201224445
:2059200082F82B100021420122449163002142012244D1630021420122441164401C0F2824
:20594000DFD3002020E000214201224482F829124101214481F828024101214488860021D6
:205960004201224482F82B12002142012244C2F83812002142012244C2F83C1200214201C3
:205980002244C2F84012401C0F28DCD3211D83B068462022FEF7FEF90EBC206800F03DFC8B
:2059A000002084F82400012084F82904206801F0BCF8002006B010BD10B5040094F828040C
:2059C000012801D1022010E0012084F8280401212000FFF724FC206801F0A5F8206800F00B
:2059E00005FC002084F82804002010BD10B50400206801F09CF8000402D5200000F0BCF97B
:205A0000206801F094F840050FD52068B0F844004FF6FF3108402168A1F844002000FFF7AB
:205A20005AFA0021200000F085F8206801F07FF8400408D52068B0F844004BF6FF710840E6
:205A40002168A1F84400206801F071F8800408D52068B0F844004DF6FF7108402168A1F80C
:205A60004400206801F063F8C0041DD52068B0F840004FF6FB7108402168A1F84000206805
:205A8000B0F840004FF6F77108402168A1F840002000FFF745FA2068B0F844004EF6FF714A
:205AA00008402168A1F84400206801F040F8000520D52068B0F8400050F008002168A1F8B3
:205AC00040002068B0F844004FF2FF7108402168A1F844002068B0F8400050F00400216876
:205AE000A1F84000206801F022F8C00402D42000FFF704FA206801F01AF880050BD5206814
:205B0000B0F844004FF6FF5108402168A1F844002000FFF7DAF9206801F009F8C00508D551
:205B20002068B0F844004FF6FF6108402168A1F8440010BD10B5040094F82804012801D155
:205B400002200CE0012084F8280484F82410C9B2206800F0E0FF002084F82804002010BD37
:205B600070B5040000250020C9B2080606D5C9B211F07F0040012044283007E0C9B211F0F8
:205B80007F00400120444FF40A76304411F07F060670C9B2C909417092B20261C37094F84A
:205BA0002814012901D102200BE0012184F828140100206800F044FB002084F8280428001E
:205BC000C0B270BD10B504000020C9B2080606D5C9B211F07F0040012044283007E0C9B27F
:205BE00011F07F00400120444FF40A72104411F07F020270C9B2C909417094F82814012989
:205C000001D102200AE0012184F828140100206800F0B6FC002084F82804002010BD38B5FF
:205C200004000020C9B211F07F00400120444FF40A752844426183610022C26100224270D2
:205C400011F07F0202707F22114204D10100206800F078FD03E00100206800F073FD0020AD
:205C600032BDC9B211F00F0149010844D0F8440280B2704710B50024C9B211F07F046401CF
:205C8000044428346261A3610022E2610122627011F07F0222707F22114204D121000068D9
:205CA00000F050FD03E02100006800F04BFD002010BD38B504000D000021EDB2280607D54E
:205CC000EDB215F07F004001204410F1280105E0EDB2680120444FF40A7101440120887065
:205CE00015F07F000870EDB2E809487094F82804012801D1022011E0012084F82804206849
:205D000000F084FE7F20054204D104F22C41206800F012FF002084F82804002032BD10B5CE
:205D200004000020C9B2080606D5C9B211F07F0040012044283005E0C9B2480120444FF493
:205D40000A7210440022827011F07F020270C9B2C909417094F82814012901D102200AE09D
:205D6000012184F828140100206800F088FE002084F82804002010BDF8B504000025002798
:205D800000260020ADF802000020ADF8000030E02068008848F60F7108402168088014F115
:205DA00028052068B0F85000297810EBC100216811EB400000F2044000688005800DE8611B
:205DC0006869E9690844686100212000FFF772F894F8240000280CD0A869002809D194F897
:205DE000240050F080002168A1F84C00002084F824002068B0F84400ADF80200000440F141
:205E0000CC81BDF8020010F00F06F6B2002E40F08F80BDF80200C006BAD54FF40A7004EB9C
:205E2000000520680088ADF80000BDF80000000521D52068B0F85000297810EBC100216892
:205E400011EB400000F20C4000688005800DE861EB699BB2AA8804F22C41206800F08BFECE
:205E60002068008840F68F710840216808802000FFF70CF8BDE7BDF800000004B9D52068F6
:205E8000008840F68F710840216808802068B0F85000297810EBC100216811EB400000F257
:205EA0000C4000688005800DE861E86900280AD0EB699BB2AA886969206800F05CFE686938
:205EC000E9690844686100212000FEF7E7FF2068B0F85000216811EB400000F20C4029692A
:205EE0003F290CD3296949092A7C12F01F0F00D1491E890251F4004189B2016008E0296942
:205F000049082A7CD20700D5491C890289B20160206800884BF68F71084090F4805090F4DF
:205F2000005040F4004050F080002168088060E72068F6B230F82600ADF80000BDF80000AD
:205F4000000440F18E802068F6B230F8260040F68F7108402168F6B221F82600F6B2700179
:205F600020444FF40A7100EB0105A87A002818D12068B0F85000297810EBC100216811EB79
:205F8000400000F20C4000688705BF0DBFB2002F4DD03B009BB2AA886969206800F0EBFD1A
:205FA00045E02068297830F82100400418D52068B0F85000297810EBC100216811EB400077
:205FC00000F2044000688705BF0DBFB2002F1FD03B009BB2EA886969206800F0CCFD17E038
:205FE0002068B0F85000297810EBC100216811EB400000F20C4000688705BF0DBFB2002F61
:020000040800F2
:2060000006D03B009BB22A896969206800F0B3FD2068297830F8210048F68F71084040F449
:20602000004050F0C00021682A7821F82200E869BFB23818E8616869BFB238446861A869C7
:20604000002803D0BFB22869874204D229782000FEF724FF05E0AB696A6929782000FFF748
:20606000DEFDBDF8000000067FF5C3AEF6B27001204410F128052068F6B230F8260048F63E
:206080000F7108402168F6B221F82600A87A002819D12068B0F85000297810EBC10021682E
:2060A00011EB400000F2044000688005800DE861E86900284FD0EB699BB2AA8869692068E6
:2060C00000F03CFD47E02068297830F82100400619D52068B0F85000297810EBC100216864
:2060E00011EB400000F2044000688005800DE861E869002820D0EB699BB2EA886969206895
:2061000000F01CFD18E02068B0F85000297810EBC100216811EB400000F20C4000688005B1
:20612000800DE861E869002806D0EB699BB22A896969206800F002FD2068297830F821002B
:2061400048F68F71084040F4404050F0800021682A7821F822002068B0F85000297810EBC3
:20616000C100216811EB400000F2044000688005800DE8616869E96908446861A86900282F
:2061800004D129782000FEF795FE32E6AB696A6929782000FFF76EFD2BE60020F2BD10B41C
:2061A000002489B20C0607D589B211F07F014901084410F1280406E089B2490108444FF419
:2061C0000A7100EB010492B2002A03D10020A072A38004E00120A072E380180C208100205E
:2061E00010BC70470EB4002003B0704700214FF43F41B0F840201143A0F8401000207047D1
:2062000000214FF43D41B0F8402032EA0101A0F8401000207047002070470EB400B5012147
:20622000A0F840100021A0F840100021A0F844100021A0F85010FFF7D9FF00205DF810FBF9
:2062400010B4CA78002A05D0022A0FD024D3032A16D02DE00A7830F8222048F68F131A40F1
:2062600052F400720B7820F8232021E00A7830F8222048F68F131A400B7820F8232017E08C
:206280000A7830F8222048F68F131A4052F4C0620B7820F823200BE00A7830F8222048F67D
:2062A0008F131A4052F480620B7820F82320FFE70A7830F8222048F68F731A400B781A4390
:2062C00042F4004252F080020B7820F823208A7A002A40F089804A78002A30D0B0F8502039
:2062E0000B7812EBC30210EB420212F580628B889BB25B089BB25B0013600A7830F8222067
:2063000052060CD50A7830F8222048F68F731A4042F4004252F0C0020B7820F823200A78E2
:2063200030F8222048F6BF731A4092F0200242F4004252F08002097820F821201DE1B0F8C9
:2063400050200B7812EBC30210EB420212F581628B889BB25B089BB25B001360B0F8502069
:206360000B7812EBC30210EB420202F20C420B693F2B0CD30B695B090C7C14F01F0F00D137
:206380005B1E9B0253F400439BB2136008E00B695B080C7CE40700D55B1C9B029BB21360C2
:2063A0000A7830F8222052040CD50A7830F8222048F68F731A4042F4404252F080020B7835
:2063C00020F823200A7830F822204BF68F731A4092F4805292F4005242F4004252F080026D
:2063E000097820F82120C8E00A7830F8222048F68F731A4042F4014252F080020B7820F8BD
:206400002320B0F850200B7812EBC30210EB420212F58062CB889BB25B089BB25B00136096
:20642000B0F850200B7812EBC30210EB420212F581620B899BB25B089BB25B0013604A78B5
:20644000002A4FD10A7830F8222052040CD50A7830F8222048F68F731A4042F4404252F04F
:2064600080020B7820F823200A7830F8222052060CD50A7830F8222048F68F731A4042F4DB
:20648000004252F0C0020B7820F823200A7830F8222048F68F731A4042F4004252F0C002D6
:2064A0000B7820F823200A7830F822204BF68F731A4092F4805292F4005242F4004252F08B
:2064C00080020B7820F823200A7830F8222048F6BF731A4042F4004252F08002097820F8D1
:2064E00021204AE00A7830F8222052040CD50A7830F8222048F68F731A4042F4404252F08E
:2065000080020B7820F823200A7830F8222052060CD50A7830F8222048F68F731A4042F43A
:20652000004252F0C0020B7820F823200A7830F8222048F68F731A4042F4404252F0800235
:206540000B7820F823200A7830F8222048F6BF731A4042F4004252F080020B7820F823208D
:206560000A7830F822204BF68F731A4042F4004252F08002097820F82120002010BC7047D9
:206580008A7A002A42D14A78002A1FD00A7830F8222052060CD50A7830F8222048F68F738E
:2065A0001A4042F4004252F0C0020B7820F823200A7830F8222048F6BF731A4042F40042F9
:2065C00052F08002097820F82120B9E00A7830F8222052040CD50A7830F8222048F68F7335
:2065E0001A4042F4404252F080020B7820F823200A7830F822204BF68F731A4042F40042E6
:2066000052F08002097820F8212099E04A78002A4BD10A7830F8222052040CD50A7830F88E
:20662000222048F68F731A4042F4404252F080020B7820F823200A7830F8222052060CD5FF
:206640000A7830F8222048F68F731A4042F4004252F0C0020B7820F823200A7830F822206E
:2066600048F68F731A4042F4004252F0C0020B7820F823200A7830F822204BF68F731A409D
:2066800042F4004252F080020B7820F823200A7830F8222048F6BF731A4042F4004252F070
:2066A0008002097820F821204AE00A7830F8222052040CD50A7830F8222048F68F731A40AB
:2066C00042F4404252F080020B7820F823200A7830F8222052060CD50A7830F8222048F611
:2066E0008F731A4042F4004252F0C0020B7820F823200A7830F8222048F68F731A4042F428
:20670000404252F080020B7820F823200A7830F8222048F6BF731A4042F4004252F0800263
:206720000B7820F823200A7830F822204BF68F731A4042F4004252F08002097820F82120DC
:206740000020704770B504000D000022AE696878012840F0BF802869A969884204D22E69A1
:20676000A869801BA86102E0AE690020A861A87A002811D133009BB2AA886969200000F082
:20678000DDF9B4F85000297810EBC10014EB400000F2044006608BE0287834F82000400652
:2067A0002FD5687800281DD1B4F85000297810EBC10014EB400000F20C403F2E0AD3710945
:2067C00016F01F0F00D1491E890251F4004189B2016014E07108F20700D5491C890289B23A
:2067E00001600CE06878012809D1B4F85000297810EBC10014EB400000F2044006602A8982
:206800002EE0687800281DD1B4F85000297810EBC10014EB400000F204403F2E0AD37109E2
:2068200016F01F0F00D1491E890251F4004189B2016014E07108F20700D5491C890289B2D9
:2068400001600CE06878012809D1B4F85000297810EBC10014EB400000F204400660EA8862
:2068600033009BB292B26969200000F067F9687800280DD1287834F8200048F68F710840BA
:2068800040F4004050F0C000297824F821000FE0687801280CD1287834F8200048F68F71A7
:2068A000084040F4404050F08000297824F82100287834F8200048F6BF71084090F010000C
:2068C00090F0200040F4004050F08000297824F8210099E02869A969884204D22E69A869A2
:2068E000801BA86102E0AE690020A861A87A00281DD1B4F85000297810EBC10014EB400002
:2069000000F20C403F2E0AD3710916F01F0F00D1491E890251F4004189B2016063E07108A0
